:100000000C942A000C94F105189500001895000036
:10001000189500001895000018950000189500002C
:10002000189500001895000018950000189500001C
:10003000189500001895000018950000189500000C
:1000400018950000189500001895000018950000FC
:10005000189500008FE58DBFC8E3E6EF4E2E84E0D3
:100060008EBFD4E0F3E05F2EA89584B7082E877F7B
:1000700084BF88E1992781BD91BDEEEFF3E0A0E652
:10008000B0E088278D933197E9F766248A988B989A
:100090008E98889A8F9ABA98BB98BC9ABD9ABE9A45
:1000A000BF9A8FEF84BB7FEF75BB7FEF78BB9298D1
:1000B00093980E94B205A895909880E991E00E94DB
:1000C000E205909A74B7777F74BF8FE181BD87E0B6
:1000D00081BD81B5886081BDA89585B7836085BFE6
:1000E0007BB770647BBF789486E886B980E087B977
:1000F000379A8FE38093E200A89580E090E0ACED22
:10010000B0E08D939C9383990C949800ACEDB0E093
:100110000E94D205ACEDB0E00D911C91083E53E079
:10012000150711F00C9496000E94B2050C94830000
:10013000AEE9B0E00C9107FB16F00C94B700AEE905
:10014000B0E00C9104FB16F00C94AD00A8E7B0E011
:10015000BA93AA930E94A5032296AEE9B0E08C91CF
:1001600080648C93AEE9B0E08C918F778C93A0EE95
:10017000B0E0E8944C9106B3882700FD816001FD52
:100180008260841711F4B6F310C08C934295840FEB
:10019000823049F0803139F0833229F0813319F00F
:1001A0000E94BA0202C00E949F0207B1007E07B9F6
:1001B0000E94B707A4EEB0E08D939C9393E0A4EE69
:1001C000B0E00E94C0078091E4008093E10007B195
:1001D000007E07B90E94B707A4EEB0E08D939C9310
:1001E00093E0A4EEB0E00E94C0078091E400809309
:1001F000E20007B1007E07B90E94B707A4EEB0E0A5
:100200008D939C9393E0A4EEB0E00E94C007809190
:10021000E4008093E3004091E2000091E1000417C4
:1002200081E009F080E08F934091E3000091E100CC
:10023000041781E009F080E09F9189238F9340911A
:10024000DF000091E100041781E009F480E09F9154
:100250008923882311F40C9440018091E10080935C
:10026000DF008BE08093A10080EB8093A20082E00E
:100270008093A3008091E1008093A4000E94D502A6
:10028000A998A6E3B0E08C9183FBA9EAB0E08827A7
:1002900080F98C93A6E3B0E08C9182FBA5EBB0E0F3
:1002A000882780F98C93A99AAA98A6E3B0E08C914C
:1002B00083FBAAEAB0E0882780F98C93A6E3B0E03C
:1002C0008C9182FBA6EBB0E0882780F98C93AA9AE8
:1002D000A898A6E3B0E08C9183FBABEAB0E0882756
:1002E00080F98C93A6E3B0E08C9182FBA7EBB0E0A1
:1002F000882780F98C93A89AAB98A6E3B0E08C91FC
:1003000083FBACEAB0E0882780F98C93A6E3B0E0E9
:100310008C9182FBA8EBB0E0882780F98C93AB9A94
:10032000AC98A6E3B0E08C9183FBADEAB0E08827FF
:1003300080F98C93A6E3B0E08C9182FBA9EBB0E04E
:10034000882780F98C93AC9AAD98A6E3B0E08C91A5
:1003500083FBAEEAB0E0882780F98C93A6E3B0E097
:100360008C9182FBAAEBB0E0882780F98C93AD9A40
:10037000AF98A6E3B0E08C9183FBAFEAB0E08827AA
:1003800080F98C93A6E3B0E08C9182FBABEBB0E0FC
:10039000882780F98C93AF9AAE98A6E3B0E08C9151
:1003A00083FBA0EBB0E0882780F98C93A6E3B0E054
:1003B0008C9182FBACEBB0E0882780F98C93AE9AED
:1003C000C598A6E3B0E08C9183FBA1EBB0E0882751
:1003D00080F98C93A6E3B0E08C9182FBADEBB0E0AA
:1003E000882780F98C93C59AC698A6E3B0E08C91D3
:1003F00083FBA2EBB0E0882780F98C93A6E3B0E002
:100400008C9182FBAEEBB0E0882780F98C93C69A82
:10041000C498A6E3B0E08C9183FBA3EBB0E08827FF
:1004200080F98C93A6E3B0E08C9182FBAFEBB0E057
:10043000882780F98C93C49AC798A6E3B0E08C9182
:1004400083FBA4EBB0E0882780F98C93A6E3B0E0AF
:100450008C9182FBA0ECB0E0882780F98C93C79A3E
:1004600081E08093D9000091D900083118F011F093
:100470000C949D02A9EDB0E0AD90BB24A0ECB0E0DF
:10048000AA0DBB1D4C91A9EDB0E0AD90BB24A8EA2C
:10049000B0E0AA0DBB1D0C91041711F40C94950249
:1004A000A9EDB0E0AD90BB24A8EAB0E0AA0DBB1D59
:1004B0008C91A9EDB0E0AD90BB24A0ECB0E0AA0D0A
:1004C000BB1D8C93A9EDB0E0AD90BB24A8EAB0E0D1
:1004D000AA0DBB1D0C91013011F00C94830288E031
:1004E0008093A10080E88093A2000091D9004BE3A3
:1004F000040FA3EAB0E00C9380E08093A4000E9474
:10050000D5020C94950289E08093A10080E9809344
:10051000A2000091D9004BE3040FA3EAB0E00C93D2
:100520008FE78093A4000E94D502A9EDB0E08C91E2
:100530008F5F8C9310F40C9433020C947C008BE04E
:100540008093A10080EB8093A20081E08093A300C0
:100550008FE38093A4008BE08093A50080EB8093D1
:10056000A60081E08093A70080E08093A8000E940D
:10057000FF0208958BE08093A10080EB8093A2009E
:1005800081E08093A30081E48093A4008BE08093BA
:10059000A50080EB8093A60081E08093A7008FE701
:1005A0008093A8000E94FF020895A8E7B0E00C9194
:1005B00005FB16F00C94FE0290988091A1008093A8
:1005C00086008091A200809387008091A300809391
:1005D00088008091A40080938900A4E8B0E0BA93D9
:1005E000AA9384E0D2018C9381E00E94B1070E941B
:1005F0004905249681E00E94AD07909A0895A8E7E6
:10060000B0E00C9105FB16F00C94380390988091A3
:10061000A100809386008091A20080938700809142
:10062000A300809388008091A4008093890080912A
:10063000A50080938A008091A60080938B00809112
:10064000A70080938C008091A80080938D00A4E87F
:10065000B0E0BA93AA9388E0D2018C9381E00E9423
:10066000B1070E944905249681E00E94AD07909A47
:100670000895F894FFCF121201100100000008C085
:1006800016E405010001020001006509026500028F
:10069000010080320904000000010100000924016A
:1006A0000001090001010904010002010300000723
:1006B0002401000141000624020101000624020277
:1006C00002000924030103010201000924030204BA
:1006D000010101000905010308000A0000052501C8
:1006E00001010905810308000A0000052501010335
:1006F000000004040309040000001414035900441A
:100700000045002D004D0049004400490000000054
:100710002E2E035900440045005F006D00690064FF
:100720000069005F0063006F006E00740072006F6C
:10073000006C006C00650072005F00560031000024
:100740000000060603310000000080E08093A00056
:1007500080E6A881B9818C9300916200003811F085
:100760000C940E0400916300063011F00C940C04FC
:1007700000916500013011F00C94C703E6E7F6E044
:100780000E94CC0581E08093A0000C940C04023000
:1007900011F00C94D403EAE8F6E00E94CC0581E065
:1007A0008093A0000C940C04033011F00C940C0402
:1007B00000916400003011F00C94E703E2EFF6E0E2
:1007C0000E94CC0581E08093A0000C940C040130C1
:1007D00011F00C94F403EAEFF6E00E94CC0581E0FE
:1007E0008093A0000C940C04023011F00C940104CE
:1007F000E0E1F7E00E94CC0581E08093A0000C943A
:100800000C04033011F00C940C04E2E4F7E00E94B5
:10081000CC0581E08093A0000C948304003011F09B
:100820000C944D0400916300053011F00C943704D2
:10083000A881B981BA93AA9380E0D2018C9381E018
:100840000E94B1070E944905249681E00E94AD07ED
:10085000A881B9810C9105FB16F40C9431040C9419
:10086000280480916400809360000C944B0409304C
:1008700011F00C944B04A881B981BA93AA9380E03B
:10088000D2018C9381E00E94B1070E944905249611
:1008900081E00E94AD070C948304013811F00C94A0
:1008A000660400916300063011F00C94640400911A
:1008B0006500023211F00C946404E0EFF6E00E944F
:1008C000CC0581E08093A0000C948304013211F0E8
:1008D0000C948304009163000A3011F00C9483049B
:1008E00081E08093DE00A881B981BA93AA9380E069
:1008F000D2018C9381E00E94B1070E9449052496A1
:1009000081E00E94AD070091A000013011F00C942D
:100910009404A881B981BA93AA93A8E6B0E0BA93E7
:10092000AA930E9495042496089581E00E94B1073D
:1009300081E00E94B10781E00E94B10782E00E943D
:10094000B1070E94CF05AE81BF810E94CB070C92F8
:100950000E94CC05AE81BF814C91A885B9850C91D0
:10096000041710F00C94BA04A885B9858C91AE8157
:10097000BF818C9382E0AC81BD818C9381E0AA81A0
:10098000BB818C93AE81BF814C91AA81BB810C91BC
:10099000041718F011F00C944305AC81BD818C91C3
:1009A0008F5F8C930E94CF05AC81BD81AD90BB243D
:1009B000AA85BB85AA0DBB1D11970E94CB070C927F
:1009C0000E94CC05AC81BD810C910A3081E009F018
:1009D00080E08F93AE81BF814C91AA81BB810C9145
:1009E000041781E009F080E09F91892B882311F49E
:1009F0000C943B05AC81BD818C9182508C93AA856F
:100A0000BB85BA93AA93AE81BF818C91D2018C939E
:100A100081E00E94B1070E944905249681E00E946E
:100A2000AD07AA85BB850C9105FB16F40C94370520
:100A300080E090E0A881B9818D939C9383990C9478
:100A40003505A881B9810E94D205A881B9810D918F
:100A50001C91083E53E0150711F00C9433050E94D9
:100A6000B2050C9443050C941E050C94110582E00C
:100A7000AC81BD818C93AA81BB818C918F5F8C935B
:100A800010F40C94C20485E0481A80E0580A2896B5
:100A90000895AA81BB818C91807C8C93ACE9B0E0F5
:100AA000BA93AA93AC80BD80A2E0B0E0AA0DBB1DB2
:100AB000BA93AA93AC81BD81BA93AA930E946F079F
:100AC0002696A881B9818C918D5F8C93AA81BB8178
:100AD0000C91A881B9814C91040FAA81BB810C9320
:100AE000ACE9B0E08C91A881B981AD90BB24AA811A
:100AF000BB81AA0DBB1D11978C93A881B9818C91E4
:100B00008F5F8C93ACE9B0E011968C91A881B9818C
:100B1000AD90BB24AA81BB81AA0DBB1D11978C93FC
:100B20008BE4AA80BB80A1E0B0E0AA0DBB1D8C9332
:100B3000AA81BB810C9106FB16F40C94A70583ECEB
:100B4000AA80BB80A1E0B0E0AA0DBB1D8C93AA8156
:100B5000BB818C9180618C93AA81BB818C918F7DAC
:100B60008C930895AEE9B0E08C9180648C93AEE9EB
:100B7000B0E08C918F778C9380E28093780080E254
:100B80008093840080E28093900080E080936000F6
:100B900080E08093DE0008958E2E9F2E0895E82D2C
:100BA000F92D0895ED91FC91EF5FFF4FFC93EE93CB
:100BB00008953197F1F70895689462F80895E894DC
:100BC00062F80895EF93FF93EE27E82BE92B31F0BD
:100BD000E8EBFBE03197F1F70197D1F7FF91EF9147
:100BE0000895AF93BF934F933F933FB73F93339590
:100BF000839BE9F7829909C0839B07C0829905C04E
:100C0000839B03C0829901C08DC0A1E6B0E0309102
:100C10009E00442736FF4BE08399ECCF2F931F9320
:100C2000A40F40E010B3B41F36FFA40F40E0B41F80
:100C30000F9300B32FE73FEF13FB20F9102712FBB0
:100C400021F910B3000013C010B332273D933FEFDA
:100C5000012702FB20F900B30C7099F1297F91F173
:100C6000102712FB21F910B30000237F89F1000047
:100C7000012702FB22F900B3277E81F1102712FB26
:100C800023F92F7C89F110B3012702FB24F900C05E
:100C90002F7979F100B32F774395102712FB25F9AF
:100CA0002F7361F110B3012702FB26F9223058F1AE
:100CB0004C30A8F500B3102712FB27F9243048F177
:100CC000C3CF3AC00000216000B33E7F1095C8CF6B
:100CD00022603D7F009510B30000C9CF24603B7FA8
:100CE0001095000000B3CACF2860377F009500C080
:100CF000CACF20613F7E109500C0CCCF20623F7DDF
:100D0000009500C0CFCF00C020643F7B109500C08D
:100D1000D1CF20683F77009500C000C095CF0F91DC
:100D20001F912F913AB736FD62CF3F913FBF3F9160
:100D30004F91BF91AF91189530E43ABFA41BB040DA
:100D40000D91102F13731132C1F41D912D9140910B
:100D50006000110F221F16952F70141771F50936B8
:100D600049F0013E61F130919E0036FF26C00D3200
:100D700029F123C020939F0049F020919F0025FD79
:100D8000CECF30919E00307C322B2F70A8E7B0E0A0
:100D9000203049F0A4E8B0E0213029F0A0E9B0E02B
:100DA000213009F00AC01D91093691F0033CA9F0E9
:100DB0000B3499F0023D31F0B2CF206220612093D4
:100DC0009F00ADCF1F7E106230E413271E93A7CF84
:100DD00014FF05C0412F4F7024C036FD02C01AE534
:100DE0000BC0433041F036FFFACF30683F7B309381
:100DF0009E004093770012EDBB27A1E141E011C0B6
:100E000052BB279520F43A9521F4220FF9CF5027B1
:100E100036E000C052BB2795B8F43A95B9F4220FDA
:100E2000F9CF5F934F930CE0939A21B32C6021BBD1
:100E300052B320E4502736E0000052BB279578F4E7
:100E40003A9579F4220FF9CF502736E02D9152BB15
:100E500027958EF178F73A9579F7220FF9CF502739
:100E600036E000C052BB279520F43A9521F4220FBA
:100E7000F9CF502736E000C052BB279520F43A95B1
:100E800021F4220FF9CF502736E000C052BB27953E
:100E900020F43A9521F4220FF9CF502736E04A95F5
:100EA00047FB52BB279520F43A9521F4220FF9CF46
:100EB000502736E0A5CF00C022B3237F22BB4F913D
:100EC000A41BB040422F286031B3337F00E40ABF37
:100ED0005F910E91037422BB31BB42BB20CFAF9315
:100EE000BF930F931F932F933F934F938F93A8819B
:100EF000B9814C91AA81BB810FEF1FEF4A95DAF0BF
:100F00002D912027822F012F332788942795822720
:100F10003795282F2795122F3795881F8227282F3E
:100F200022958227232F31E081FD2327022720EC01
:100F300081FD1227E3CF10950095AC81BD810D9303
:100F40001C938F914F913F912F911F910F91BF91C2
:100F5000AF910895481A590A0895481A8827580ADF
:100F6000089599275A924A92480E591E0895369A22
:100F70003699FECF369A3699FECF84B195B1089551
:100F8000903041F00D911C91169507959A95E1F7D7
:0E0F90001C930E930895C89531960020089585
:00000001FF
