:1000000012C00CC318951895189518951895189541
:100010001895189518951895189518951895189578
:100020001895189518958FE58DBFC8E3E6EF4E2E0D
:1000300084E08EBFD4E0F3E05F2EA89584B7082E4D
:10004000877F84BF88E1992781BD91BDEEEFF3E002
:10005000A0E6B0E088278D933197E9F766248A9867
:100060008B9892989398AAD285B7836085BF7BB707
:1000700070647BBF80E087BBB89A80E084BBC09887
:100080007894C1D0AEE9B0E00C9107FB0EF026C029
:10009000AEE9B0E00C9104FB0EF007C0A8E7B0E0B9
:1000A000BA93AA93C7D022960FC0AEE9B0E00C91E4
:1000B00001FB0EF009C0A2E6B0E08C9180958C9314
:1000C000A2E6B0E08C9188BBAEE9B0E08C91806490
:1000D0008C93AEE9B0E08C918F778C93A1EAB0E07D
:1000E00083B38C93A1EAB0E08C9181708C934091A2
:1000F000A2000091A100041709F423C0A4E8B0E015
:100100000C9105FB0EF01DC08091A1008093A20010
:100110000091A100003009F404C088E280938600B9
:1001200003C084E180938600A4E8B0E0BA93AA9368
:1001300081E0D2018C9381E031D4D9D1249681E041
:1001400029D49FCFF894FFCF1212011001000000B4
:1001500008341201000200010203010029090229EA
:10016000000101028064090400000203000000098C
:100170002111010001222100070581030800140755
:10018000050203080014210600FF0901A10209016C
:10019000150025FF7508950181020901150026FF4C
:1001A00000750895019102C00404030904000000D1
:1001B00029290370007500720065002D006200613E
:1001C000007300690063002E006E00610072006F12
:1001D0000064002E00720075000000001F1F03481D
:1001E0000049004400200043044104420440043E0E
:1001F0000439044104420432043E040000000606AF
:1002000003320000000080E090E0A4EAB0E08D93AB
:100210009C9383990EC0A4EAB0E0F0D1A4EAB0E0C8
:100220000D911C91083E53E0150708F401C0C6D19A
:10023000F0CF089580E08093A00080E6A881B98186
:100240008C9300916200003809F048C0009163006F
:10025000063009F042C000916500013009F007C086
:10026000E8E4F1E0C5D181E08093A00036C002301F
:1002700009F007C0ECE5F1E0BBD181E08093A0007C
:100280002CC0033009F029C000916400003009F04F
:1002900007C0E8EAF1E0ACD181E08093A0001DC086
:1002A000013009F007C0E0EBF1E0A2D181E08093DA
:1002B000A00013C0023009F007C0ECEDF1E098D1C6
:1002C00081E08093A00009C0033009F006C0EEEF82
:1002D000F1E08ED181E08093A0005EC0003009F093
:1002E0002FC000916300053009F019C0A881B981C1
:1002F000BA93AA9380E0D2018C9381E04FD3F7D0D8
:10030000249681E047D3A881B9810C9105FB0EF4B6
:1003100001C0F9CF809164008093600010C0093063
:1003200009F00DC0A881B981BA93AA9380E0D201E7
:100330008C9381E033D3DBD0249681E02BD32CC087
:10034000013809F011C000916300063009F00BC0BC
:1003500000916500023209F006C0E6E8F1E048D1FC
:1003600081E08093A00018C0013209F015C000910F
:1003700063000A3009F010C081E08093A300A881D7
:10038000B981BA93AA9380E0D2018C9381E006D31D
:10039000AED0249681E0FED20091A000013009F099
:1003A0000AC0A881B981BA93AA93A8E6B0E0BA932B
:1003B000AA9302D02496089581E0F0D281E0EED293
:1003C00081E0ECD282E0EAD216D1AE81BF81ECD2DC
:1003D0000C920ED1AE81BF814C91A885B9850C914C
:1003E000041708F006C0A885B9858C91AE81BF813D
:1003F0008C9382E0AC81BD818C9381E0AA81BB812A
:100400008C93AE81BF814C91AA81BB810C91041762
:1004100010F009F066C0AC81BD818C918F5F8C9328
:10042000EAD0AC81BD81AD90BB24AA85BB85AA0D65
:10043000BB1D1197B9D20C92DBD0AC81BD810C9160
:100440000A3081E009F080E08F93AE81BF814C914A
:10045000AA81BB810C91041781E009F080E09F9193
:10046000892B882309F436C0AC81BD818C918250E0
:100470008C93AA85BB85BA93AA93AE81BF818C91D8
:10048000D2018C9381E08AD232D0249681E082D24C
:10049000AA85BB850C9105FB0EF418C080E090E0A6
:1004A000A881B9818D939C9383990FC0A881B9814C
:1004B000A5D0A881B9810D911C91083E53E0150784
:1004C00009F002C07BD00DC0EFCFE2CF82E0AC815B
:1004D000BD818C93AA81BB818C918F5F8C9308F432
:1004E00090CF85E0481A80E0580A28960895AA819E
:1004F000BB818C91807C8C93ACE9B0E0BA93AA93D9
:10050000AC80BD80A2E0B0E0AA0DBB1DBA93AA9357
:10051000AC81BD81BA93AA93FFD12696A881B981F7
:100520008C918D5F8C93AA81BB810C91A881B9813C
:100530004C91040FAA81BB810C93ACE9B0E08C9183
:10054000A881B981AD90BB24AA81BB81AA0DBB1D36
:1005500011978C93A881B9818C918F5F8C93ACE9B2
:10056000B0E011968C91A881B981AD90BB24AA818D
:10057000BB81AA0DBB1D11978C938BE4AA80BB8015
:10058000A1E0B0E0AA0DBB1D8C93AA81BB810C91A8
:1005900006FB0EF408C083ECAA80BB80A1E0B0E0AB
:1005A000AA0DBB1D8C93AA81BB818C9180618C9319
:1005B000AA81BB818C918F7D8C930895AEE9B0E0C8
:1005C0008C9180648C93AEE9B0E08C918F778C93A2
:1005D00080E28093780080E28093840080E28093C0
:1005E000900080E08093600080E08093A3000895F5
:1005F0008E2E9F2E0895E82DF92D0895ED91FC91F2
:10060000EF5FFF4FFC93EE9308953197F1F7089554
:10061000689462F80895E89462F80895AF93BF93E0
:100620004F933F933FB73F933395839BE9F782996D
:1006300009C0839B07C0829905C0839B03C0829930
:1006400001C08DC0A1E6B0E030919E00442736FF86
:100650004BE08399ECCF2F931F93A40F40E010B38E
:10066000B41F36FFA40F40E0B41F0F9300B32FE771
:100670003FEF13FB20F9102712FB21F910B3000004
:1006800013C010B332273D933FEF012702FB20F93F
:1006900000B30C7099F1297F91F1102712FB21F919
:1006A00010B30000237F89F10000012702FB22F92B
:1006B00000B3277E81F1102712FB23F92F7C89F1EB
:1006C00010B3012702FB24F900C02F7979F100B3A0
:1006D0002F774395102712FB25F92F7361F110B383
:1006E000012702FB26F9223058F14C30A8F500B35F
:1006F000102712FB27F9243048F1C3CF3AC000007D
:10070000216000B33E7F1095C8CF22603D7F0095E9
:1007100010B30000C9CF24603B7F1095000000B3E8
:10072000CACF2860377F009500C0CACF20613F7EC6
:10073000109500C0CCCF20623F7D009500C0CFCF88
:1007400000C020643F7B109500C0D1CF20683F7768
:10075000009500C000C095CF0F911F912F913AB71F
:1007600036FD62CF3F913FBF3F914F91BF91AF9117
:10077000189530E43ABFA41BB0400D91102F1373AD
:100780001132C1F41D912D9140916000110F221F73
:1007900016952F70141771F5093649F0013E61F175
:1007A00030919E0036FF26C00D3229F123C02093E0
:1007B0009F0049F020919F0025FDCECF30919E00F3
:1007C000307C322B2F70A8E7B0E0203049F0A4E84D
:1007D000B0E0213029F0A0E9B0E0223009F00AC0F1
:1007E0001D91093691F0033CA9F00B3499F0023DBC
:1007F00031F0B2CF2062206120939F00ADCF1F7EE9
:10080000106230E413271E93A7CF14FF05C0412FB9
:100810004F7024C036FD02C01AE50BC0433041F0D2
:1008200036FFFACF30683F7B30939E0040937700CD
:1008300012EDBB27A1E141E011C052BB279520F486
:100840003A9521F4220FF9CF502736E000C052BB71
:100850002795B8F43A95B9F4220FF9CF5F934F93E7
:100860000CE0939A21B32C6021BB52B320E45027B3
:1008700036E0000052BB279578F43A9579F4220FC0
:10088000F9CF502736E02D9152BB27958EF178F79E
:100890003A9579F7220FF9CF502736E000C052BBC6
:1008A000279520F43A9521F4220FF9CF502736E00E
:1008B00000C052BB279520F43A9521F4220FF9CFBE
:1008C000502736E000C052BB279520F43A9521F41A
:1008D000220FF9CF502736E04A9547FB52BB2795A8
:1008E00020F43A9521F4220FF9CF502736E0A5CF16
:1008F00000C022B3237F22BB4F91A41BB040422FE4
:10090000286031B3337F00E40ABF5F910E91037416
:1009100022BB31BB42BB20CFAF93BF930F931F933A
:100920002F933F934F938F93A881B9814C91AA81C4
:10093000BB810FEF1FEF4A95DAF02D912027822F10
:10094000012F33278894279582273795282F2795BD
:10095000122F3795881F8227282F22958227232F31
:1009600031E081FD2327022720EC81FD1227E3CF10
:1009700010950095AC81BD810D931C938F914F9183
:100980003F912F911F910F91BF91AF910895481AF8
:10099000590A0895481A8827580A089599275A929B
:1009A0004A92480E591E0895C89531960020089520
:00000001FF
