:1000000012C06CC3189518951895189518951895E1
:100010004BC3189518951895189518951895189517
:100020001895189518958FE58DBFC8E3E6EF4E2E0D
:1000300084E08EBFD4E0F3E05F2EA89584B7082E4D
:10004000877F84BF88E1992781BD91BD66248A9806
:100050008B989298939811D380E08FBD84E08EBDE9
:1000600079B7746079BF85B7836085BF7BB77064EB
:100070007BBF789485E0E3E31ED6AEE9B0E00D9354
:100080001C9385E0E3E3A2D5A0EAB0E0EAEBF0E060
:1000900098E049D685E0E3E39ED5A8EAB0E0EAEB34
:1000A000F0E098E040D662FA0EF0F4CF85E0E3E3AA
:1000B000F9D45CEC85E0E3E317D554E485E0E3E3B1
:1000C00013D580E090E09DBD8CBD80E08093B000B2
:1000D00080E090E0A3EBB0E08D939C9383990EC0F9
:1000E000A3EBB0E0EBD2A3EBB0E00D911C91083E86
:1000F00053E0150709F001C0C0D2F0CFA2E9B0E08B
:100100000C9107FB0EF016C0A2E9B0E00C9104FBC5
:100110000EF006C0A8E7B0E0BA93AA93F4D02296F6
:10012000A2E9B0E08C9180648C93A2E9B0E08C915C
:100130008F778C930091B000013009F08BC080E084
:100140008093B000AEE9B0E00D911C91013050E019
:10015000150708F41EC085E0E3E3A0EAB0E0C0D5CF
:100160005EEB85E0E3E3C0D4BB27A6E185E0E3E3F3
:1001700021E02A93DDD4A5E9B0E05C93BB27A6E19A
:1001800085E0E3E321E02A93D3D4A6E9B0E05C93D1
:1001900006C08EEF809395008EEF80939600AEE9B7
:1001A000B0E00D911C91023050E0150708F41EC01C
:1001B00085E0E3E3A8EAB0E093D55EEB85E0E3E316
:1001C00093D4BB27A6E185E0E3E321E02A93B0D4F2
:1001D000A7E9B0E05C93BB27A6E185E0E3E321E07B
:1001E0002A93A6D4A8E9B0E05C9306C08EEF809372
:1001F00097008EEF8093980085E0E3E353D45CECA6
:1002000085E0E3E371D454E485E0E3E36DD4A4E84E
:10021000B0E00C9105FB0EF01DC08091950080931D
:10022000860080919600809387008091970080934C
:1002300088008091980080938900A4E8B0E0BA9388
:10024000AA9384E0D2018C9381E004D4AFD12496A8
:1002500081E0FCD33DCFF894FFCF121201100100D2
:10026000000008AAAA04EF0100010200010022090F
:100270000222000101028032090400000103000093
:100280000009211101000122140007058103080063
:10029000C800140600FF0901A1020901150025FF8D
:1002A000750895048102C00004040309040028288D
:1002B0000370007500720065002D0062006100731C
:1002C00000690063002E006E00610072006F006420
:1002D000002E0072007500002C2C035500530042C4
:1002E000005F005400650072006D006F0020002D5B
:1002F0000020005400650070006D006F006D006507
:1003000000740070000080E08093940080E6A88173
:10031000B9818C9300916200003809F03EC00091D1
:100320006300063009F038C000916500013009F023
:1003300007C0EAE5F2E0BCD181E0809394002CC0D4
:10034000023009F007C0EEE6F2E0B2D181E080931E
:10035000940022C0033009F01FC0009164000030F7
:1003600009F007C0E8EAF2E0A3D181E080939400AD
:1003700013C0013009F007C0EEEAF2E099D181E044
:100380008093940009C0023009F006C0E8EDF2E065
:100390008FD181E0809394005EC0003009F02FC0BF
:1003A00000916300053009F019C0A881B981BA93A2
:1003B000AA9380E0D2018C9381E04CD3F7D02496AD
:1003C00081E044D3A881B9810C9105FB0EF401C0F2
:1003D000F9CF809164008093600010C0093009F06B
:1003E0000DC0A881B981BA93AA9380E0D2018C9301
:1003F00081E030D3DBD0249681E028D32CC00138B3
:1004000009F011C000916300063009F00BC00091A3
:100410006500023209F006C0E2E9F2E049D181E06C
:100420008093940018C0013209F015C00091630058
:100430000A3009F010C081E08093B500A881B9812D
:10044000BA93AA9380E0D2018C9381E003D3AED01B
:10045000249681E0FBD200919400013009F00AC09B
:10046000A881B981BA93AA93A8E6B0E0BA93AA93F7
:1004700002D02496089581E0EDD281E0EBD281E0B4
:10048000E9D282E0E7D217D1AE81BF81E9D20C92E6
:100490000FD1AE81BF814C91A885B9850C9104170D
:1004A00008F006C0A885B9858C91AE81BF818C9378
:1004B00082E0AC81BD818C9381E0AA81BB818C9369
:1004C000AE81BF814C91AA81BB810C91041710F0C1
:1004D00009F066C0AC81BD818C918F5F8C93EBD0AD
:1004E000AC81BD81AD90BB24AA85BB85AA0DBB1D87
:1004F0001197B6D20C92DCD0AC81BD810C910A3040
:1005000081E009F080E08F93AE81BF814C91AA8198
:10051000BB810C91041781E009F080E09F91892B49
:10052000882309F436C0AC81BD818C9182508C93B4
:10053000AA85BB85BA93AA93AE81BF818C91D20163
:100540008C9381E087D232D0249681E07FD2AA8535
:10055000BB850C9105FB0EF418C080E090E0A881EB
:10056000B9818D939C9383990FC0A881B981A6D03E
:10057000A881B9810D911C91083E53E0150709F03F
:1005800002C07BD00DC0EFCFE2CF82E0AC81BD8155
:100590008C93AA81BB818C918F5F8C9308F490CF50
:1005A00085E0481A80E0580A28960895AA81BB8100
:1005B0008C91807C8C93A0E9B0E0BA93AA93AC8034
:1005C000BD80A2E0B0E0AA0DBB1DBA93AA93AC8196
:1005D000BD81BA93AA93FCD12696A881B9818C914A
:1005E0008D5F8C93AA81BB810C91A881B9814C91BC
:1005F000040FAA81BB810C93A0E9B0E08C91A88183
:10060000B981AD90BB24AA81BB81AA0DBB1D1197F6
:100610008C93A881B9818C918F5F8C93A0E9B0E015
:1006200011968C91A881B981AD90BB24AA81BB8120
:10063000AA0DBB1D11978C938BE4AA80BB80A1E00F
:10064000B0E0AA0DBB1D8C93AA81BB810C9106FB67
:100650000EF408C083ECAA80BB80A1E0B0E0AA0D34
:10066000BB1D8C93AA81BB818C9180618C93AA81E4
:10067000BB818C918F7D8C930895A2E9B0E08C9121
:1006800080648C93A2E9B0E08C918F778C9380E2A8
:100690008093780080E28093840080E08093600003
:1006A00080E08093B500089581E08093B0001895B4
:1006B0008E2E9F2E0895E82DF92D0895ED91FC9131
:1006C000EF5FFF4FFC93EE9308953197F1F7089594
:1006D000689462F80895E89462F80895AF93BF9320
:1006E0004F933F933FB73F933395839BE9F78299AD
:1006F00009C0839B07C0829905C0839B03C0829970
:1007000001C08DC0A1E6B0E030919200442736FFD1
:100710004BE08399ECCF2F931F93A40F40E010B3CD
:10072000B41F36FFA40F40E0B41F0F9300B32FE7B0
:100730003FEF13FB20F9102712FB21F910B3000043
:1007400013C010B332273D933FEF012702FB20F97E
:1007500000B30C7099F1297F91F1102712FB21F958
:1007600010B30000237F89F10000012702FB22F96A
:1007700000B3277E81F1102712FB23F92F7C89F12A
:1007800010B3012702FB24F900C02F7979F100B3DF
:100790002F774395102712FB25F92F7361F110B3C2
:1007A000012702FB26F9223058F14C30A8F500B39E
:1007B000102712FB27F9243048F1C3CF3AC00000BC
:1007C000216000B33E7F1095C8CF22603D7F009529
:1007D00010B30000C9CF24603B7F1095000000B328
:1007E000CACF2860377F009500C0CACF20613F7E06
:1007F000109500C0CCCF20623F7D009500C0CFCFC8
:1008000000C020643F7B109500C0D1CF20683F77A7
:10081000009500C000C095CF0F911F912F913AB75E
:1008200036FD62CF3F913FBF3F914F91BF91AF9156
:10083000189530E43ABFA41BB0400D91102F1373EC
:100840001132C1F41D912D9140916000110F221FB2
:1008500016952F70141751F5093649F0013E41F1F4
:100860003091920036FF22C00D3209F11FC0209353
:10087000930049F02091930025FDCECF3091920056
:10088000307C322B2F70A8E7B0E0203029F0A4E8AC
:10089000B0E0213009F00AC01D91093691F0033C07
:1008A000A9F00B3499F0023D31F0B6CF20622061FF
:1008B00020939300B1CF1F7E106230E413271E9364
:1008C000ABCF14FF05C0412F4F7024C036FD02C0CE
:1008D0001AE50BC0433041F036FFFACF30683F7B5A
:1008E000309392004093770012EDBB27A1E141E0E5
:1008F00011C052BB279520F43A9521F4220FF9CF6D
:10090000502736E000C052BB2795B8F43A95B9F4A9
:10091000220FF9CF5F934F930CE0939A21B32C6091
:1009200021BB52B320E4502736E0000052BB27958C
:1009300078F43A9579F4220FF9CF502736E02D91CB
:1009400052BB27958EF178F73A9579F7220FF9CFB8
:10095000502736E000C052BB279520F43A9521F489
:10096000220FF9CF502736E000C052BB279520F464
:100970003A9521F4220FF9CF502736E000C052BB40
:10098000279520F43A9521F4220FF9CF502736E02D
:100990004A9547FB52BB279520F43A9521F4220F44
:1009A000F9CF502736E0A5CF00C022B3237F22BB6A
:1009B0004F91A41BB040422F286031B3337F00E435
:1009C0000ABF5F910E91037422BB31BB42BB24CF9F
:1009D000AF93BF930F931F932F933F934F938F9397
:1009E000A881B9814C91AA81BB810FEF1FEF4A9575
:1009F000DAF02D912027822F012F33278894279515
:100A000082273795282F2795122F3795881F822701
:100A1000282F22958227232F31E081FD23270227CB
:100A200020EC81FD1227E3CF10950095AC81BD81AC
:100A30000D931C938F914F913F912F911F910F9187
:100A4000BF91AF910895481A590A0895481A882706
:100A5000580A089599275A924A92480E591E0895A5
:100A6000C89531960020089591E0882321F088945C
:100A7000991F8A95E9F7892F90950895883018F085
:100A800011968850FBCF08950181082B01831281B4
:100A900019231283EF93FF93EEE0F0E016DEFF914F
:100AA000EF91089518DEFF27DFDFEEDFEF93FF936E
:100AB000ECE9F5E00ADEFF91EF91182B1283092390
:100AC0000183EF93FF93EEECF0E0FFDDFF91EF91F8
:100AD0001081182309F0FCDDEF93FF93EAECF4E0BA
:100AE000F4DDFF91EF910895BFDFFF2721E048E09B
:100AF00005C0BADFFF2729915D9148E0C5DF579512
:100B000010F4182B1283EF93FF93EEE9F0E0DDDD94
:100B1000FF91EF91182B1283EF93FF93EAE1F0E03E
:100B2000D4DDFF91EF914A9549F72A9529F7089569
:100B30009BDFFF27299148E05527A6DF0923018382
:100B4000EF93FF93E7E1F0E0C0DDFF91EF91889430
:100B50001081182309F008945795EF93FF93E1EA69
:100B6000F0E0B3DDFF91EF914A9539F75D932A9557
:100B700011F7089589DF09230183EF93FF93E7E1DC
:100B8000F0E0A3DDFF91EF91E8941081182309F0C4
:100B90006894EF93FF93E1EAF0E097DDFF91EF9126
:100BA000089572DF16F4182B1283EF93FF93EEE98A
:100BB000F0E08BDDFF91EF91182B1283EF93FF9301
:100BC000EAE1F0E082DDFF91EF9108953327309361
:100BD000B9003093B60066DF0EF458C03091B6000D
:100BE00030FD54C066276093B80063956093B700EA
:100BF00021E050EF48E082DFBDDF31F9BBDF32F9A1
:100C0000632F6670663009F441C0603019F031FB23
:100C100040D025C06091B7007091B9006717B1F05E
:100C2000C0F48F939F93862F8A95AAEBB0E026DFBE
:100C30001BDF7C9178236894772329F4E8946091F2
:100C4000B7006093B8009F918F9109C0689421D03C
:100C500006C0E8941ED06091B7006093B800A1DF91
:100C60006091B70063956093B700613409F0C4CF19
:100C70006091B8006093B9006623E89409F4689421
:100C800030F93093B600E89462F80895689462F8F9
:100C900008958F939F93AAEBB0E08091B7008A9557
:100CA000EDDEE2DE7C9116F4782B01C079237C9393
:100CB0009F918F9108958F9389DF8F91A0E0B0E08D
:100CC00066F011968F93AF93BF9385DFBF91AF917D
:100CD0008F910EF0F6CFE89462F80A2F1B2F08953B
:100CE000AF93BF93EF93FF9338E0EAEBF0E00D9101
:100CF00001933A95E1F7FF91EF9130E43093B90019
:100D000033273093B60067DF38E0BF91AF91EAEB4D
:100D1000F0E00D914191041719F43A95D1F7089537
:100D2000D7DC089594E081918D939A95E1F7089529
:00000001FF
