:1000000019C018951895189518951895189518955C
:100010001895189518951895189518951895189578
:100020006BC01895189518951895189518951895EA
:10003000189518958FEF8DBFC8EDE6E94E2E82E03A
:100040008EBFD2E0F2E05F2EA89584B7082E877F9E
:1000500084BF88E199278093600090936000EEEF61
:10006000F1E0A0E0B1E088278D933197E9F775D0F2
:1000700066248EE0BAD08CE0B8D05BD053985B9AFF
:100080007894ECE1F4E04DD052D0E6E2F4E049D0CF
:10009000E7D0A0E0B1E02C93A1E0B1E01C93009187
:1000A00000010F3F08F018C0A1E0B1E08C918F77FC
:1000B0008C938FE71AE04CD0AEE7B2E0E0E0F1E0DD
:1000C00067D127D08FEB1AE043D0AEE7B2E0E1E092
:1000D000F1E05ED11ED00CC08FE71AE039D0E0E32A
:1000E000F4E01FD08FEB1AE033D0E0E3F4E019D056
:1000F00088EC90E0A6D0CCCF8F939F938FB73395A9
:10010000539509F4439592EA96BD9F918FBF8F91C5
:100110001895AEE7B2E08D91882311F060D0FBCF47
:10012000089518D1802D11F05AD0FBCF089580EC9E
:100130005CC081E05AD00ED080E857C08FE72130F4
:1001400039F08FEB223021F08FE8233009F08FEC6B
:10015000810F4BC083E0992774C08AEF90E071D083
:10016000259A249A239A229A219A209A289885E0FF
:1001700090E067D029982D982C982B9A2A9A299A42
:10018000EF93FF93E8E2F1E050D0FF91EF912998CF
:1001900055D0299AEF93FF93E8E2F1E046D0FF9122
:1001A000EF9129984BD0299AEF93FF93E8E2F1E081
:1001B0003CD0FF91EF91299841D02A98299AEF934A
:1001C000FF93E8E2F1E031D0FF91EF91299836D02A
:1001D00088E20BD08EE009D086E007D00895289AF7
:1001E000829505D004D02AD008952898F9CF859516
:1001F00010F42A9A01C02A98859510F42B9A01C010
:100200002B98859510F42C9A01C02C98859510F4A4
:100210002D9A01C02D98299AEF93FF93E8E2F1E01F
:1002200004D0FF91EF91299808953197F1F708953F
:10023000689462F80895E89462F8089581E090E087
:1002400000C0EF93FF93EE27E82BE92B31F0E8EBAA
:10025000FBE03197F1F70197D1F7FF91EF91089506
:100260000F933F934F935F932F923F928F939F9360
:100270008FB78F9385B58F93826085BD80916E0017
:100280008F93816080936E0082EA86BD5527442754
:100290003327343608F047C0373320F44B9BF8CF70
:1002A000F8CF41C03436E8F74B99FCCF33273232D0
:1002B000C0F74B9BFCCF932F332711272227913177
:1002C00010F0969511E0292E2694322C290E990FC4
:1002D000390E113021F0321520F74B99FCCF33271E
:1002E0000CE03215F0F34B9909C08894111F221FBE
:1002F0003315C8F44B9BFCCF332708C00894111F5B
:10030000221F331580F44B99FCCF33270A9549F708
:10031000912F991F221F991F221F25FB17F926FBDA
:1003200016F92F7102C01FEF2FEF8F9180936E008F
:100330008F9185BD8F918FBF9F918F913F902F900F
:100340005F914F913F910F910895019111912191EA
:1003500030810895C895319600200895000F111F2F
:10036000221F331F089500951095209530950F5F3B
:100370001F4F2F4F3F4F0895019110810BC0E5DFB4
:100380000BC00191108117FF05C03FEF2FEF04C094
:10039000008111272227332737FF03C0E4DF8DE2D6
:1003A0008D93CF92DF92EF92AA24BB24CC24DD243C
:1003B000EE2440E2EAE0FF2755E093E38081890FD5
:1003C00087FD9F7083FD907F891B81935A95A9F7C4
:1003D000C5DFAA1CBB1CCC1CDD1CEE1C4A9551F7CA
:1003E000E894EFE0FF2782910CD0EB30E0F71EF0AD
:1003F00068948A2D0AD088278D93EF90DF90CF9054
:100400000895982F829501D0892F8F70805D26F0F6
:10041000803309F4089568948D930895416472655A
:100420007373203A0000436F6D6D616E643A000093
:040430002020200068
:00000001FF
