:1000000019C065C4189518951895189518951895E0
:100010001895189518951895189518951895189578
:1000200013C318951895189518951895189518953F
:10003000189518958FEF8DBFC8EDE6E94E2E82E03A
:100040008EBFD2E0F2E05F2EA89584B7082E877F9E
:1000500084BF88E1992780936000909360003FD32C
:1000600066248EE084D38CE082D325D38FE711E021
:1000700031D3E0EBFCE019D38FEB11E02BD3E8EBAD
:10008000FCE013D37FEF74B970E075B97FEF77B9F7
:1000900070E078B973EE7AB970E07BB95A985C98E1
:1000A000B9D280916900836080936900E89A78945E
:1000B00099D3A6E6B1E02C93A7E6B1E01C9300919A
:1000C00066010F3F08F019C0A7E6B1E08C918F7769
:1000D0008C9380916701809368018FE711E0FAD2D9
:1000E000E0ECFCE0E2D2AEE7B2E0E7E6F1E0A8D572
:1000F000D4D285E090E067D306C08FE711E0EAD262
:10010000EAECFCE0D2D280E090E0A1E4B1E08D9393
:100110009C934C990EC0A1E4B1E0A9D2A1E4B1E056
:100120000D911C91083E53E0150709F001C072D2F1
:10013000F0CFAEE3B1E00C9107FB0EF047C0AEE3A9
:10014000B1E00C9104FB0EF007C0A8E1B1E0BA9356
:10015000AA93A6D0229630C0AEE3B1E00C9101FB89
:100160000EF02AC000910201003009F007C080E0C3
:1001700080934401A5E4B1E088278C93A4E4B1E026
:100180008C918F5F8C9300914401013010F009F045
:1001900001C007C091E080910201A5E4B1E076D2F0
:1001A0006ED200914401093009F006C08FEB11E0D6
:1001B00091D2A5E4B1E073D2AEE3B1E08C9180645A
:1001C0008C93AEE3B1E08C918F778C93A4E2B1E095
:1001D0000C9105FB0EF014C08091680180932601FC
:1001E000A4E2B1E0BA93AA9381E0D2018C9381E0BA
:1001F00045D5A9D1249681E03DD58FEF8093680144
:1002000057CFF894FFCF121201100100000008AA86
:10021000AA55EF010001020001002909022900018D
:100220000102809609040000020300000009211168
:100230000100012221000705810308000A070502C9
:100240000308000A210600FF0901A10209011500A7
:1002500025FF7508950181020901150026FF00752B
:100260000895019102C00404030904000A0A0372FC
:10027000006100640061006E0000222203520061F0
:1002800000640061006E0020004C00430044005FE9
:1002900000490052002000760031002E003000009E
:1002A00080E08093400180E6A881B9818C93009121
:1002B0000201003809F03EC000910301063009F048
:1002C00038C000910501013009F007C0E6E0F2E016
:1002D000C8D181E0809340012CC0023009F007C0F2
:1002E000EAE1F2E0BED181E08093400122C0033018
:1002F00009F01FC000910401003009F007C0E6E6D4
:10030000F2E0AFD181E08093400113C0013009F0E9
:1003100007C0ECE6F2E0A5D181E08093400109C07E
:10032000023009F006C0EAE7F2E09BD181E0809359
:1003300040015EC0003009F02FC00091030105307C
:1003400009F019C0A881B981BA93AA9380E0D201BB
:100350008C9381E093D4F7D0249681E08BD4A8814C
:10036000B9810C9105FB0EF401C0F9CF8091040115
:100370008093000110C0093009F00DC0A881B98137
:10038000BA93AA9380E0D2018C9381E077D4DBD03A
:10039000249681E06FD42CC0013809F011C000917F
:1003A0000301063009F00BC000910501023209F08B
:1003B00006C0E4E4F2E055D181E08093400118C02A
:1003C000013209F015C0009103010A3009F010C094
:1003D00081E080934301A881B981BA93AA9380E018
:1003E000D2018C9381E04AD4AED0249681E042D4ED
:1003F00000914001013009F00AC0A881B981BA9387
:10040000AA93A8E0B1E0BA93AA9302D024960895E3
:1004100081E034D481E032D481E030D482E02ED443
:1004200023D1AE81BF8130D40C921BD1AE81BF816C
:100430004C91A885B9850C91041708F006C0A885D1
:10044000B9858C91AE81BF818C9382E0AC81BD81F6
:100450008C9381E0AA81BB818C93AE81BF814C914A
:10046000AA81BB810C91041710F009F066C0AC8121
:10047000BD818C918F5F8C93F7D0AC81BD81AD90A5
:10048000BB24AA85BB85AA0DBB1D1197FDD30C9279
:10049000E8D0AC81BD810C910A3081E009F080E0A8
:1004A0008F93AE81BF814C91AA81BB810C910417BF
:1004B00081E009F080E09F91892B882309F436C000
:1004C000AC81BD818C9182508C93AA85BB85BA93F7
:1004D000AA93AE81BF818C91D2018C9381E0CED35F
:1004E00032D0249681E0C6D3AA85BB850C9105FB4A
:1004F0000EF418C080E090E0A881B9818D939C93A0
:100500004C990FC0A881B981B2D0A881B9810D9151
:100510001C91083E53E0150709F002C07BD00DC0C6
:10052000EFCFE2CF82E0AC81BD818C93AA81BB8109
:100530008C918F5F8C9308F490CF85E0481A80E00F
:10054000580A28960895AA81BB818C91807C8C934F
:10055000ACE3B1E0BA93AA93AC80BD80A2E0B0E076
:10056000AA0DBB1DBA93AA93AC81BD81BA93AA937D
:100570002CD32696A881B9818C918D5F8C93AA810A
:10058000BB810C91A881B9814C91040FAA81BB81D8
:100590000C93ACE3B1E08C91A881B981AD90BB2400
:1005A000AA81BB81AA0DBB1D11978C93A881B9812B
:1005B0008C918F5F8C93ACE3B1E011968C91A88104
:1005C000B981AD90BB24AA81BB81AA0DBB1D119737
:1005D0008C938BE4AA80BB80A1E0B0E0AA0DBB1D88
:1005E0008C93AA81BB810C9106FB0EF408C083ECAE
:1005F000AA80BB80A1E0B0E0AA0DBB1D8C93AA81AC
:10060000BB818C9180618C93AA81BB818C918F7D01
:100610008C930895AEE3B1E08C9180648C93AEE34B
:10062000B1E08C918F778C9380E28093180180E207
:100630008093240180E28093300180E08093000168
:1006400080E08093430108958F939F938FB73395F4
:10065000539509F4439592EA96BD9F918FBF8F9170
:1006600018958E2E9F2E0895E82DF92D0895ED9161
:10067000FC91EF5FFF4FFC93EE93089580E2903082
:1006800019F08D939A95E9F79C9308958F938D9126
:100690008823E9F711978F910895AEE7B2E08D9125
:1006A000882311F05ED0FBCF0895EED2802D11F09B
:1006B00058D0FBCF089581E05AD00ED080E857C0C3
:1006C0008FE7213039F08FEB223021F08FE8233093
:1006D00009F08FEC810F4BC083E0992774C08AEF3B
:1006E00090E071D0259A249A239A229A219A209AEE
:1006F000289885E090E067D029982D982C982B9A1F
:100700002A9A299AEF93FF93E8E2F1E050D0FF9103
:10071000EF91299855D0299AEF93FF93E8E2F1E001
:1007200046D0FF91EF9129984BD0299AEF93FF93F0
:10073000E8E2F1E03CD0FF91EF91299841D02A986E
:10074000299AEF93FF93E8E2F1E031D0FF91EF9126
:10075000299836D088E20BD08EE009D086E007D009
:100760000895289A829505D004D02AD00895289813
:10077000F9CF859510F42A9A01C02A98859510F42E
:100780002B9A01C02B98859510F42C9A01C02C98B7
:10079000859510F42D9A01C02D98299AEF93FF9317
:1007A000E8E2F1E004D0FF91EF91299808953197A4
:1007B000F1F70895689462F80895E89462F808954E
:1007C00081E090E000C0EF93FF93EE27E82BE92B48
:1007D00031F0E8EBFBE03197F1F70197D1F7FF91AA
:1007E000EF9108950F933F934F935F932F923F9212
:1007F0008F939F938FB78F9385B58F93826085BDBD
:1008000080916E008F93816080936E0082EA86BD36
:100810005527442733273D3608F047C0373320F4A7
:100820004B9BF8CFF8CF41C03D36E8F74B99FCCF52
:1008300033273232C0F74B9BFCCF932F332711273E
:100840002227913110F0969511E0292E2694322C12
:10085000290E990F390E113021F0321520F74B99DE
:10086000FCCF33270CE03215F0F34B9909C0889484
:10087000111F221F3315C8F44B9BFCCF332708C030
:100880000894111F221F331580F44B99FCCF332796
:100890000A9549F7912F991F221F991F221F25FBA7
:1008A00017F926FB16F92F7102C01FEF2FEF8F915A
:1008B00080936E008F9185BD8F918FBF9F918F9197
:1008C0003F902F905F914F913F910F910895AF937B
:1008D000BF934F933F933FB73F9333954C9BE9F7BB
:1008E0004A9909C04C9B07C04A9905C04C9B03C05C
:1008F0004A9901C08DC0A1E0B1E030913E0144278A
:1009000036FF4BE04C99ECCF2F931F93A40F40E0A0
:1009100019B1B41F36FFA40F40E0B41F0F9309B103
:100920002FE73FEF14FB20F9102712FB21F919B133
:10093000000013C019B132273D933FEF012702FB9E
:1009400020F909B1047199F1297F91F1102712FB67
:1009500021F919B10000237F89F10000012702FB72
:1009600022F909B1277E81F1102712FB23F92F7C90
:1009700089F119B1012702FB24F900C02F7979F11F
:1009800009B12F774395102712FB25F92F7361F1D9
:1009900019B1012702FB26F9223058F14C30A8F595
:1009A00009B1102712FB27F9243048F1C3CF3AC010
:1009B0000000216009B13E7F1095C8CF22603D7FC5
:1009C000009519B10000C9CF24603B7F109500004D
:1009D00009B1CACF2860377F009500C0CACF206117
:1009E0003F7E109500C0CCCF20623F7D009500C0B7
:1009F000CFCF00C020643F7B109500C0D1CF2068CE
:100A00003F77009500C000C095CF0F911F912F91A7
:100A10003CB330FD62CF3F913FBF3F914F91BF91BB
:100A2000AF91189531E03CBBA41BB0400D91102F45
:100A300013731132C1F41D912D9140910001110FDA
:100A4000221F16952F70141771F5093649F0013ED3
:100A500061F130913E0136FF26C00D3229F123C0ED
:100A600020933F0149F020913F0125FDCECF3091E9
:100A70003E01307C322B2F70A8E1B1E0203049F0EC
:100A8000A4E2B1E0213029F0A0E3B1E0223009F086
:100A90000AC01D91093691F0033CA9F00B3499F07E
:100AA000023D31F0B2CF2062206120933F01ADCFF3
:100AB0001F7E106230E413271E93A7CF14FF05C0DA
:100AC000412F4F7024C036FD02C01AE50BC04330E1
:100AD00041F036FFFACF30683F7B30933E014093C0
:100AE000170112EDBB27A1E141E011C05BB92795C9
:100AF00020F43A9521F4220FF9CF502736E000C0B8
:100B00005BB92795B8F43A95B9F4220FF9CF5F9302
:100B10004F9304E15C9A2AB124612AB95BB120E4C5
:100B2000502736E000005BB9279578F43A9579F4C0
:100B3000220FF9CF502736E02D915BB927958EF122
:100B400078F73A9579F7220FF9CF502736E000C0B1
:100B50005BB9279520F43A9521F4220FF9CF50275D
:100B600036E000C05BB9279520F43A9521F4220FB6
:100B7000F9CF502736E000C05BB9279520F43A95AD
:100B800021F4220FF9CF502736E04A9547FB5BB995
:100B9000279520F43A9521F4220FF9CF502736E01B
:100BA000A5CF00C02BB12B7E2BB94F91A41BB04019
:100BB000422F20613AB13B7E01E00CBB5F910E9168
:100BC00003742BB93AB94BB920CFAF93BF930F93AE
:100BD0001F932F933F934F938F93A881B9814C918B
:100BE000AA81BB810FEF1FEF4A95DAF02D912027E4
:100BF000822F012F33278894279582273795282F16
:100C00002795122F3795881F8227282F2295822714
:100C1000232F31E081FD2327022720EC81FD1227BD
:100C2000E3CF10950095AC81BD810D931C938F91FE
:100C30004F913F912F911F910F91BF91AF910895C7
:100C40000081E89444E624D00AD0082F4AE020D05E
:100C500006D06894082F03D088278D930895005DEF
:100C600026F0003309F4089568940D930895481A06
:100C7000590A0895481A8827580A089599275A92B8
:100C80004A92480E591E0895C8953196002008953D
:100C9000FF93881BF9E0001FFA9511F4FF91089566
:100CA000881F841B18F4840F8894F5CF0894F3CF21
:100CB0002D526164616E2D002D3D5553423D2D0036
:100CC000436F6D6D616E643A20002020202020204B
:0C0CD000202020202020202020200000D8
:00000001FF
