:1000000012C014C318951895189518951895189539
:10001000F3C2189518951895189518951895189570
:100020001895189518958FE58DBFC0E2E8EB4E2E18
:1000300084E08EBFD4E0F3E05F2EA89584B7082E4D
:10004000877F84BF88E1992781BD91BD66248A9806
:100050008B9892989398B6D285B7836085BF7BB70B
:1000600070647BBF80E08FBD84E08EBD79B7746023
:1000700079BF789485E0E3E3CAD5AAEAB0E00D93AE
:100080001C9385E0E3E34ED5ACEAB0E0ECEBF0E0A6
:1000900098E0F5D585E0E3E3B1D45CEC85E0E3E3FB
:1000A000CFD454E485E0E3E3CBD480E090E09DBD81
:1000B0008CBD80E08093B40080E090E0A5EBB0E0E0
:1000C0008D939C9383990EC0A5EBB0E09FD2A5EBD6
:1000D000B0E00D911C91083E53E0150709F001C0F6
:1000E00071D2F0CFAEE9B0E00C9107FB0EF01DC06D
:1000F000AEE9B0E00C9104FB0EF007C0A8E7B0E059
:10010000BA93AA93A5D0229606C0AEE9B0E00C91AE
:1001100001FB0EF000C0AEE9B0E08C9180648C93DE
:10012000AEE9B0E08C918F778C930091B4000130F0
:1001300009F039C080E08093B40085E0E3E3ACEAE5
:10014000B0E07AD55EEB85E0E3E37AD485E0A1EA1E
:10015000B0E0E3E329E02A9397D485E0E3E34ED4CB
:100160005CEC85E0E3E36CD454E485E0E3E368D43D
:10017000A4E8B0E00C9105FB0EF015C08091A10041
:10018000809386008091A20080938700A4E8B0E06D
:10019000BA93AA9382E0D2018C9381E007D4ABD1C9
:1001A000249681E0FFD388CFF894FFCF121201107C
:1001B0000100000008AAAA02EF01000102000100EC
:1001C00029090229000101028096090400000203A6
:1001D000000000092111010001222100070581030F
:1001E0000800C807050203080064210600FF090192
:1001F000A1020901150025FF750895028102090178
:10020000150026FF00750895019102C0040403093A
:1002100004000E0E036F006C006C006F0070006134
:1002200000002C2C036F006C006C006F00700061EC
:1002300000270073002000670061006D00650070FA
:1002400000610064002000760031002E00300000C4
:1002500080E08093A00080E6A881B9818C93009112
:100260006200003809F03EC000916300063009F0DA
:1002700038C000916500013009F007C0ECEAF1E0F8
:10028000BFD181E08093A0002CC0023009F007C0EC
:10029000E0ECF1E0B5D181E08093A00022C0033012
:1002A00009F01FC000916400003009F007C0ECE0C5
:1002B000F2E0A6D181E08093A00013C0013009F0E4
:1002C00007C0E2E1F2E09CD181E08093A00009C088
:1002D000023009F006C0E2E2F2E092D181E08093C0
:1002E000A0005EC0003009F02FC00091630005300F
:1002F00009F019C0A881B981BA93AA9380E0D2010C
:100300008C9381E053D3F7D0249681E04BD3A8811E
:10031000B9810C9105FB0EF401C0F9CF8091640006
:100320008093600010C0093009F00DC0A881B98128
:10033000BA93AA9380E0D2018C9381E037D3DBD0CB
:10034000249681E02FD32CC0013809F011C0009110
:100350006300063009F00BC000916500023209F01D
:1003600006C0EAEEF1E04CD181E08093A00018C015
:10037000013209F015C0009163000A3009F010C085
:1003800081E08093B700A881B981BA93AA9380E0F5
:10039000D2018C9381E00AD3AED0249681E002D3BF
:1003A0000091A000013009F00AC0A881B981BA9378
:1003B000AA93A8E6B0E0BA93AA9302D0249608952F
:1003C00081E0F4D281E0F2D281E0F0D282E0EED29C
:1003D0001AD1AE81BF81F0D20C9212D1AE81BF8111
:1003E0004C91A885B9850C91041708F006C0A88522
:1003F000B9858C91AE81BF818C9382E0AC81BD8147
:100400008C9381E0AA81BB818C93AE81BF814C919A
:10041000AA81BB810C91041710F009F066C0AC8171
:10042000BD818C918F5F8C93EED0AC81BD81AD90FE
:10043000BB24AA85BB85AA0DBB1D1197BDD20C920A
:10044000DFD0AC81BD810C910A3081E009F080E001
:100450008F93AE81BF814C91AA81BB810C9104170F
:1004600081E009F080E09F91892B882309F436C050
:10047000AC81BD818C9182508C93AA85BB85BA9347
:10048000AA93AE81BF818C91D2018C9381E08ED2F0
:1004900032D0249681E086D2AA85BB850C9105FBDB
:1004A0000EF418C080E090E0A881B9818D939C93F0
:1004B00083990FC0A881B981A9D0A881B9810D9174
:1004C0001C91083E53E0150709F002C07BD00DC017
:1004D000EFCFE2CF82E0AC81BD818C93AA81BB815A
:1004E0008C918F5F8C9308F490CF85E0481A80E060
:1004F000580A28960895AA81BB818C91807C8C93A0
:10050000ACE9B0E0BA93AA93AC80BD80A2E0B0E0C1
:10051000AA0DBB1DBA93AA93AC81BD81BA93AA93CD
:1005200003D22696A881B9818C918D5F8C93AA8184
:10053000BB810C91A881B9814C91040FAA81BB8128
:100540000C93ACE9B0E08C91A881B981AD90BB244B
:10055000AA81BB81AA0DBB1D11978C93A881B9817B
:100560008C918F5F8C93ACE9B0E011968C91A8814F
:10057000B981AD90BB24AA81BB81AA0DBB1D119787
:100580008C938BE4AA80BB80A1E0B0E0AA0DBB1DD8
:100590008C93AA81BB810C9106FB0EF408C083ECFE
:1005A000AA80BB80A1E0B0E0AA0DBB1D8C93AA81FC
:1005B000BB818C9180618C93AA81BB818C918F7D52
:1005C0008C930895AEE9B0E08C9180648C93AEE991
:1005D000B0E08C918F778C9380E28093780080E2FA
:1005E0008093840080E28093900080E0809360009C
:1005F00080E08093B700089581E08093B40018955F
:100600008E2E9F2E0895E82DF92D0895ED91FC91E1
:10061000EF5FFF4FFC93EE9308953197F1F7089544
:10062000689462F80895E89462F80895AF93BF93D0
:100630004F933F933FB73F933395839BE9F782995D
:1006400009C0839B07C0829905C0839B03C0829920
:1006500001C08DC0A1E6B0E030919E00442736FF76
:100660004BE08399ECCF2F931F93A40F40E010B37E
:10067000B41F36FFA40F40E0B41F0F9300B32FE761
:100680003FEF13FB20F9102712FB21F910B30000F4
:1006900013C010B332273D933FEF012702FB20F92F
:1006A00000B30C7099F1297F91F1102712FB21F909
:1006B00010B30000237F89F10000012702FB22F91B
:1006C00000B3277E81F1102712FB23F92F7C89F1DB
:1006D00010B3012702FB24F900C02F7979F100B390
:1006E0002F774395102712FB25F92F7361F110B373
:1006F000012702FB26F9223058F14C30A8F500B34F
:10070000102712FB27F9243048F1C3CF3AC000006C
:10071000216000B33E7F1095C8CF22603D7F0095D9
:1007200010B30000C9CF24603B7F1095000000B3D8
:10073000CACF2860377F009500C0CACF20613F7EB6
:10074000109500C0CCCF20623F7D009500C0CFCF78
:1007500000C020643F7B109500C0D1CF20683F7758
:10076000009500C000C095CF0F911F912F913AB70F
:1007700036FD62CF3F913FBF3F914F91BF91AF9107
:10078000189530E43ABFA41BB0400D91102F13739D
:100790001132C1F41D912D9140916000110F221F63
:1007A00016952F70141771F5093649F0013E61F165
:1007B00030919E0036FF26C00D3229F123C02093D0
:1007C0009F0049F020919F0025FDCECF30919E00E3
:1007D000307C322B2F70A8E7B0E0203049F0A4E83D
:1007E000B0E0213029F0A0E9B0E0223009F00AC0E1
:1007F0001D91093691F0033CA9F00B3499F0023DAC
:1008000031F0B2CF2062206120939F00ADCF1F7ED8
:10081000106230E413271E93A7CF14FF05C0412FA9
:100820004F7024C036FD02C01AE50BC0433041F0C2
:1008300036FFFACF30683F7B30939E0040937700BD
:1008400012EDBB27A1E141E011C052BB279520F476
:100850003A9521F4220FF9CF502736E000C052BB61
:100860002795B8F43A95B9F4220FF9CF5F934F93D7
:100870000CE0939A21B32C6021BB52B320E45027A3
:1008800036E0000052BB279578F43A9579F4220FB0
:10089000F9CF502736E02D9152BB27958EF178F78E
:1008A0003A9579F7220FF9CF502736E000C052BBB6
:1008B000279520F43A9521F4220FF9CF502736E0FE
:1008C00000C052BB279520F43A9521F4220FF9CFAE
:1008D000502736E000C052BB279520F43A9521F40A
:1008E000220FF9CF502736E04A9547FB52BB279598
:1008F00020F43A9521F4220FF9CF502736E0A5CF06
:1009000000C022B3237F22BB4F91A41BB040422FD3
:10091000286031B3337F00E40ABF5F910E91037406
:1009200022BB31BB42BB20CFAF93BF930F931F932A
:100930002F933F934F938F93A881B9814C91AA81B4
:10094000BB810FEF1FEF4A95DAF02D912027822F00
:10095000012F33278894279582273795282F2795AD
:10096000122F3795881F8227282F22958227232F21
:1009700031E081FD2327022720EC81FD1227E3CF00
:1009800010950095AC81BD810D931C938F914F9173
:100990003F912F911F910F91BF91AF910895481AE8
:1009A000590A0895481A8827580A089599275A928B
:1009B0004A92480E591E0895C89531960020089510
:1009C00091E0882321F08894991F8A95E9F7892F6F
:1009D00090950895883018F011968850FBCF0895AF
:1009E0000181082B0183128119231283EF93FF9356
:1009F000EEE0F0E012DEFF91EF91089514DEFF27A4
:100A0000DFDFEEDFEF93FF93ECE9F5E006DEFF9129
:100A1000EF91182B128309230183EF93FF93EEECE0
:100A2000F0E0FBDDFF91EF911081182309F0F8DD74
:100A3000EF93FF93EAECF4E0F0DDFF91EF9108957E
:100A4000BFDFFF2721E048E005C0BADFFF2729917B
:100A50005D9148E0C5DF579510F4182B1283EF9392
:100A6000FF93EEE9F0E0D9DDFF91EF91182B1283AF
:100A7000EF93FF93EAE1F0E0D0DDFF91EF914A952B
:100A800049F72A9529F708959BDFFF27299148E028
:100A90005527A6DF09230183EF93FF93E7E1F0E0F9
:100AA000BCDDFF91EF9188941081182309F0089420
:100AB0005795EF93FF93E1EAF0E0AFDDFF91EF91FF
:100AC0004A9539F75D932A9511F7089589DF09232F
:100AD0000183EF93FF93E7E1F0E09FDDFF91EF915A
:100AE000E8941081182309F06894EF93FF93E1EAEA
:100AF000F0E093DDFF91EF91089572DF16F4182B6B
:100B00001283EF93FF93EEE9F0E087DDFF91EF9121
:100B1000182B1283EF93FF93EAE1F0E07EDDFF9163
:100B2000EF91089533273093BB003093B80066DF10
:100B30000EF458C03091B80030FD54C06627609361
:100B4000BA0063956093B90021E050EF48E082DF7E
:100B5000BDDF31F9BBDF32F9632F6670663009F40F
:100B600041C0603019F031FB40D025C06091B90020
:100B70007091BB006717B1F0C0F48F939F93862FDD
:100B80008A95ACEBB0E026DF1BDF7C91782368947C
:100B9000772329F4E8946091B9006093BA009F919B
:100BA0008F9109C0689421D006C0E8941ED060914E
:100BB000B9006093BA00A1DF6091B90063956093BA
:100BC000B900613409F0C4CF6091BA006093BB00F2
:100BD0006623E89409F4689430F93093B800E894F7
:100BE00062F80895689462F808958F939F93ACEB30
:100BF000B0E08091B9008A95EDDEE2DE7C9116F4DA
:100C0000782B01C079237C939F918F9108958F93C6
:100C100089DF8F91A0E0B0E066F011968F93AF93DB
:100C2000BF9385DFBF91AF918F910EF0F6CFE8941F
:100C300062F80A2F1B2F0895AF93BF93EF93FF9392
:100C400038E0ECEBF0E00D9101933A95E1F7FF917C
:100C5000EF9130E43093BB0033273093B80067DF67
:100C600038E0BF91AF91ECEBF0E00D9141910417AA
:100C700019F43A95D1F70895D3DC089594E0819161
:080C80008D939A95E1F70895A8
:00000001FF
