:1000000012C0F2C21895189518951895189518955C
:100010001895189518951895189518951895189578
:100020001895189518958FE58DBFC8E3E6EF4E2E0D
:1000300084E08EBFD4E0F3E05F2EA89584B7082E4D
:10004000877F84BF88E1992781BD91BD66248A9806
:100050008B989298939890D285B7836085BF7BB731
:1000600070647BBF78948FEF87BB80E084BB80E0B7
:1000700090E0A4EAB0E08D939C9383990EC0A4EA2B
:10008000B0E0A2D2A4EAB0E00D911C91083E53E08A
:10009000150709F001C070D2F0CFA1EAB0E00C91D1
:1000A00007FB0EF021C0A1EAB0E00C9104FB0EF0BA
:1000B00007C0ABE7B0E0BA93AA938FD022960AC0EC
:1000C000A1EAB0E00C9101FB0EF004C0A5E6B0E09F
:1000D0008C9188BBA1EAB0E08C9180648C93A1EAFA
:1000E000B0E08C918F778C93A7EAB0E083B38C93C8
:1000F000A7EAB0E08C9183708C93A7E8B0E00C91F4
:1001000005FB0EF015C08091A7008093A800809198
:10011000A70080938900A7E8B0E0BA93AA9381E092
:10012000D2018C9381E0E5D3ABD1249681E0DDD37D
:100130009ECFF894FFCF121201100100000008AA10
:10014000AA22EF0100010200010029090229000191
:100150000102809609040000020300000009211139
:10016000010001222100070581030800C8070502DC
:1001700003080064210600FF0901A102090115001E
:1001800025FF7508950181020901150026FF0075FC
:100190000895019102C00404030904000E0E036FC8
:1001A000006C006C006F0070006100002C2C036F6D
:1001B000006C006C006F007000610027007300206D
:1001C00000670061006D0065007000610064002040
:1001D00000760031002E0030000080E08093A30004
:1001E00080E6A881B9818C9300916500003809F000
:1001F0003EC000916600063009F038C000916800EA
:10020000013009F007C0E6E3F1E0D0D181E080934E
:10021000A3002CC0023009F007C0EAE4F1E0C6D127
:1002200081E08093A30022C0033009F01FC0009139
:100230006700003009F007C0E6E9F1E0B7D181E0DE
:100240008093A30013C0013009F007C0ECE9F1E08E
:10025000ADD181E08093A30009C0023009F006C04F
:10026000ECEAF1E0A3D181E08093A3005EC000300E
:1002700009F02FC000916600053009F019C0A8816F
:10028000B981BA93AA9380E0D2018C9381E031D3F3
:10029000F7D0249681E029D3A881B9810C9105FB80
:1002A0000EF401C0F9CF809167008093630010C005
:1002B000093009F00DC0A881B981BA93AA9380E0F2
:1002C000D2018C9381E015D3DBD0249681E00DD34D
:1002D0002CC0013809F011C000916600063009F009
:1002E0000BC000916800023209F006C0E4E7F1E0BB
:1002F0005DD181E08093A30018C0013209F015C0E0
:10030000009166000A3009F010C081E0809362001D
:10031000A881B981BA93AA9380E0D2018C9381E03D
:10032000E8D2AED0249681E0E0D20091A300013063
:1003300009F00AC0A881B981BA93AA93ABE6B0E0EC
:10034000BA93AA9302D02496089581E0D2D281E094
:10035000D0D281E0CED282E0CCD22BD1AE81BF818F
:10036000CED20C9223D1AE81BF814C91A885B985A4
:100370000C91041708F006C0A885B9858C91AE8150
:10038000BF818C9382E0AC81BD818C9381E0AA8196
:10039000BB818C93AE81BF814C91AA81BB810C91B2
:1003A000041710F009F066C0AC81BD818C918F5F9D
:1003B0008C93FFD0AC81BD81AD90BB24AA85BB8559
:1003C000AA0DBB1D11979BD20C92F0D0AC81BD81C0
:1003D0000C910A3081E009F080E08F93AE81BF81FB
:1003E0004C91AA81BB810C91041781E009F080E057
:1003F0009F91892B882309F436C0AC81BD818C91F3
:1004000082508C93AA85BB85BA93AA93AE81BF8193
:100410008C91D2018C9381E06CD232D0249681E011
:1004200064D2AA85BB850C9105FB0EF418C080E050
:1004300090E0A881B9818D939C9383990FC0A88186
:10044000B981C2D0A881B9810D911C91083E53E0B9
:10045000150709F002C090D00DC0EFCFE2CF82E0C7
:10046000AC81BD818C93AA81BB818C918F5F8C9371
:1004700008F490CF85E0481A80E0580A289608953D
:10048000AA81BB818C91807C8C9380E090E0AFE965
:10049000B0E08D939C93A881B9810C91003009F450
:1004A0001BC081E08A9381E08A93AA81BB818C91F1
:1004B0008A934FEF5FEF25E030E8AD80BE80A2E089
:1004C000B0E0AA0DBB1D1FD2AFE9B0E04D935C9325
:1004D000AFE9B0E042E070D0A881B9818C918D5F26
:1004E0008C93AA81BB810C91A881B9814C91040F96
:1004F000AA81BB810C93AFE9B0E08C91A881B9814E
:10050000AD90BB24AA81BB81AA0DBB1D11978C9312
:10051000A881B9818C918F5F8C93AFE9B0E011967F
:100520008C91A881B981AD90BB24AA81BB81AA0D11
:10053000BB1D11978C938BE4AA80BB80A1E0B0E037
:10054000AA0DBB1D8C93AA81BB810C9106FB0EF4F6
:1005500008C083ECAA80BB80A1E0B0E0AA0DBB1D5F
:100560008C93AA81BB817C9170617C937091000017
:100570007F7D709300000895A1EAB0E08C918064C3
:100580008C93A1EAB0E08C918F778C9380E280937A
:100590007B0080E28093870080E28093930080E07C
:1005A0008093630080E08093620008958E2E9F2EDA
:1005B0000895E82DF92D0895EA2FFB2F8D91809550
:1005C00081934A95D9F70895ED91FC91EF5FFF4F24
:1005D000FC93EE9308953197F1F70895689462F8CB
:1005E0000895E89462F80895AF93BF934F933F93B3
:1005F0003FB73F933395839BE9F7829909C0839B6B
:1006000007C0829905C0839B03C0829901C08DC039
:10061000A4E6B0E03091A100442736FF4BE0839977
:10062000ECCF2F931F93A40F40E010B3B41F36FFFD
:10063000A40F40E0B41F0F9300B32FE73FEF13FB6D
:1006400020F9102712FB21F910B3000013C010B3DA
:1006500032273D933FEF012702FB20F900B30C70D6
:1006600099F1297F91F1102712FB21F910B30000B5
:10067000237F89F10000012702FB22F900B3277EC6
:1006800081F1102712FB23F92F7C89F110B3012788
:1006900002FB24F900C02F7979F100B32F7743953D
:1006A000102712FB25F92F7361F110B3012702FB0C
:1006B00026F9223058F14C30A8F500B3102712FB70
:1006C00027F9243048F1C3CF3AC00000216000B3BD
:1006D0003E7F1095C8CF22603D7F009510B300008B
:1006E000C9CF24603B7F1095000000B3CACF2860BB
:1006F000377F009500C0CACF20613F7E109500C0B3
:10070000CCCF20623F7D009500C0CFCF00C02064D9
:100710003F7B109500C0D1CF20683F77009500C087
:1007200000C095CF0F911F912F913AB736FD62CF40
:100730003F913FBF3F914F91BF91AF91189530E4EA
:100740003ABFA41BB0400D91102F13731132C1F4A6
:100750001D912D9140916300110F221F16952F704E
:10076000141771F5093649F0013E61F13091A1008D
:1007700036FF26C00D3229F123C02093A20049F094
:100780002091A20025FDCECF3091A100307C322BEC
:100790002F70ABE7B0E0203049F0A7E8B0E021309F
:1007A00029F0A3E9B0E0223009F00AC01D91093612
:1007B00091F0033CA9F00B3499F0023D31F0B2CF37
:1007C000206220612093A200ADCF1F7E106230E432
:1007D00013271E93A7CF14FF05C0412F4F7024C0CD
:1007E00036FD02C01AE50BC0433041F036FFFACFA8
:1007F00030683F7B3093A10040937A0012EDBB2715
:10080000A1E141E011C052BB279520F43A9521F4B3
:10081000220FF9CF502736E000C052BB2795B8F41D
:100820003A95B9F4220FF9CF5F934F930CE0939A66
:1008300021B32C6021BB52B320E4502736E00000E6
:1008400052BB279578F43A9579F4220FF9CF5027C7
:1008500036E02D9152BB27958EF178F73A9579F7CE
:10086000220FF9CF502736E000C052BB279520F465
:100870003A9521F4220FF9CF502736E000C052BB41
:10088000279520F43A9521F4220FF9CF502736E02E
:1008900000C052BB279520F43A9521F4220FF9CFDE
:1008A000502736E04A9547FB52BB279520F43A95EE
:1008B00021F4220FF9CF502736E0A5CF00C022B394
:1008C000237F22BB4F91A41BB040422F286031B33D
:1008D000337F00E40ABF5F910E91037422BB31BBEA
:1008E00042BB20CF481A590A0895481A8827580A47
:1008F000089599275A924A92480E591E0895C8950C
:1009000031960020089579910D919981903009F0E8
:1009100013D0502788E0440F551F10F44227532767
:100920008A95C9F77A9581F789919991803019F064
:100930008A0105D0A801089588E0112701C080E14F
:10094000F801F695E795001F111F8A95D1F70895D4
:00000001FF
