:1000000012C0DEC218951895189518951895189570
:100010001895189518951895189518951895189578
:100020001895189518958FE58DBFC8E3E6EF4E2E0D
:1000300084E08EBFD4E0F3E05F2EA89584B7082E4D
:10004000877F84BF88E1992781BD91BD66249298FE
:10005000939886D285B7836085BF7BB770647BBF7A
:100060007894B99ABA9A81EF8FBD81E08EBDBB9A20
:1000700081E685BDB99ABA9ABB9A80E090E09093E8
:100080004B0080934A0080E090E090934900809379
:10009000480070E073BDA1EAB0E05CD483990EC063
:1000A000A1EAB0E07DD2A1EAB0E00D911C91083E3A
:1000B00053E0150709F001C053D2F0CFAEE9B0E02C
:1000C0000C9107FB0EF04EC0AEE9B0E00C9104FBC2
:1000D0000EF007C0A8E7B0E0BA93AA938AD02296A0
:1000E00037C0AEE9B0E00C9101FB0EF031C00091D9
:1000F00062000F3F09F004C080E08093A40005C0B7
:10010000A4EAB0E08C918F5F8C930091A400013041
:1001100009F008C0A2E6B0E08C91992790934B00BB
:1001200080934A000091A400023009F008C0A2E6C2
:10013000B0E08C91992790934900809348000091FA
:10014000A400033009F004C0A2E6B0E08C9183BDA6
:10015000AEE9B0E08C9180648C93AEE9B0E08C9114
:100160008F778C9398CFF894FFCF12120110010073
:10017000000008AAAA22EF010001020001002909DB
:1001800002290001010280FA0904000002030000B4
:100190000009211101000122140007058103080054
:1001A0000A0705020308000A140600FF0901A1025C
:1001B0000901150025FF750895019102C00004048E
:1001C000030904000A0A0372006100640061006E02
:1001D00000001C1C0352006100640061006E0020DE
:1001E000004C00450044002000760031002E003015
:1001F000000080E08093A00080E6A881B9818C9304
:1002000000916200003809F03EC0009163000630A2
:1002100009F038C000916500013009F007C0EAE636
:10022000F1E0B8D181E08093A0002CC0023009F049
:1002300007C0EEE7F1E0AED181E08093A00022C0DC
:10024000033009F01FC000916400003009F007C0BE
:10025000EEEBF1E09FD181E08093A00013C001306C
:1002600009F007C0E4ECF1E095D181E08093A000B3
:1002700009C0023009F006C0E2EDF1E08BD181E067
:100280008093A0005EC0003009F02FC00091630091
:10029000053009F019C0A881B981BA93AA9380E00A
:1002A000D2018C9381E04CD3F4D0249681E044D3E6
:1002B000A881B9810C9105FB0EF401C0F9CF8091A2
:1002C00064008093600010C0093009F00DC0A8815F
:1002D000B981BA93AA9380E0D2018C9381E030D3A4
:1002E000D8D0249681E028D32CC0013809F011C061
:1002F00000916300063009F00BC0009165000232E6
:1003000009F006C0E8EAF1E045D181E08093A00061
:1003100018C0013209F015C0009163000A3009F0DD
:1003200010C081E08093A300A881B981BA93AA93F9
:1003300080E0D2018C9381E003D3ABD0249681E09E
:10034000FBD20091A000013009F00AC0A881B98158
:10035000BA93AA93A8E6B0E0BA93AA9302D02496DF
:10036000089581E0EDD281E0EBD281E0E9D282E034
:10037000E7D213D1AE81BF81E9D20C920BD1AE810D
:10038000BF814C91A885B9850C91041708F006C06F
:10039000A885B9858C91AE81BF818C9382E0AC81B8
:1003A000BD818C9381E0AA81BB818C93AE81BF819A
:1003B0004C91AA81BB810C91041710F009F063C025
:1003C000AC81BD818C918F5F8C93E7D0AC81BD8176
:1003D000AD90BB24AA85BB85AA0DBB1D1197B6D2D3
:1003E0000C92D8D0AC81BD810C910A3081E009F02B
:1003F00080E08F93AE81BF814C91AA81BB810C912B
:10040000041781E009F080E09F91892B882309F48B
:1004100033C0AC81BD818C9182508C93AA85BB8501
:10042000BA93AA93AE81BF818C91D2018C9381E063
:1004300087D22FD0249681E07FD2AA85BB850C91EC
:1004400005FB0EF415C0A881B98184D283990FC031
:10045000A881B981A5D0A881B9810D911C91083ED0
:1004600053E0150709F002C07BD00DC0EFCFE5CFF8
:1004700082E0AC81BD818C93AA81BB818C918F5F1E
:100480008C9308F493CF85E0481A80E0580A2896A8
:100490000895AA81BB818C91807C8C93ACE9B0E0FB
:1004A000BA93AA93AC80BD80A2E0B0E0AA0DBB1DB8
:1004B000BA93AA93AC81BD81BA93AA93FFD1269631
:1004C000A881B9818C918D5F8C93AA81BB810C919D
:1004D000A881B9814C91040FAA81BB810C93ACE92E
:1004E000B0E08C91A881B981AD90BB24AA81BB8179
:1004F000AA0DBB1D11978C93A881B9818C918F5F38
:100500008C93ACE9B0E011968C91A881B981AD9043
:10051000BB24AA81BB81AA0DBB1D11978C938BE4D0
:10052000AA80BB80A1E0B0E0AA0DBB1D8C93AA817C
:10053000BB810C9106FB0EF408C083ECAA80BB8043
:10054000A1E0B0E0AA0DBB1D8C93AA81BB818C9168
:1005500080618C93AA81BB818C918F7D8C9308954F
:10056000AEE9B0E08C9180648C93AEE9B0E08C9100
:100570008F778C9380E28093780080E28093840070
:1005800080E28093900080E08093600080E0809320
:10059000A30008958E2E9F2E0895E82DF92D08951D
:1005A000ED91FC91EF5FFF4FFC93EE93089531972F
:1005B000F1F70895689462F80895E89462F8089550
:1005C000AF93BF934F933F933FB73F933395839B35
:1005D000E9F7829909C0839B07C0829905C0839B74
:1005E00003C0829901C08DC0A1E6B0E030919E00A9
:1005F000442736FF4BE08399ECCF2F931F93A40F32
:1006000040E010B3B41F36FFA40F40E0B41F0F93B7
:1006100000B32FE73FEF13FB20F9102712FB21F95E
:1006200010B3000013C010B332273D933FEF0127F2
:1006300002FB20F900B30C7099F1297F91F110278A
:1006400012FB21F910B30000237F89F1000001277C
:1006500002FB22F900B3277E81F1102712FB23F958
:100660002F7C89F110B3012702FB24F900C02F79F8
:1006700079F100B32F774395102712FB25F92F73DB
:1006800061F110B3012702FB26F9223058F14C30FA
:10069000A8F500B3102712FB27F9243048F1C3CF87
:1006A0003AC00000216000B33E7F1095C8CF2260A1
:1006B0003D7F009510B30000C9CF24603B7F1095AB
:1006C000000000B3CACF2860377F009500C0CACFB2
:1006D00020613F7E109500C0CCCF20623F7D009509
:1006E00000C0CFCF00C020643F7B109500C0D1CFA9
:1006F00020683F77009500C000C095CF0F911F91F3
:100700002F913AB736FD62CF3F913FBF3F914F9156
:10071000BF91AF91189530E43ABFA41BB0400D9142
:10072000102F13731132C1F41D912D91409160006F
:10073000110F221F16952F70141771F5093649F005
:10074000013E61F130919E0036FF26C00D3229F145
:1007500023C020939F0049F020919F0025FDCECF1C
:1007600030919E00307C322B2F70A8E7B0E0203013
:1007700049F0A4E8B0E0213029F0A0E9B0E022304F
:1007800009F00AC01D91093691F0033CA9F00B3421
:1007900099F0023D31F0B2CF2062206120939F009A
:1007A000ADCF1F7E106230E413271E93A7CF14FF36
:1007B00005C0412F4F7024C036FD02C01AE50BC0A2
:1007C000433041F036FFFACF30683F7B30939E00D4
:1007D0004093770012EDBB27A1E141E011C052BB6D
:1007E000279520F43A9521F4220FF9CF502736E0CF
:1007F00000C052BB2795B8F43A95B9F4220FF9CF4F
:100800005F934F930CE0939A21B32C6021BB52B3BA
:1008100020E4502736E0000052BB279578F43A9543
:1008200079F4220FF9CF502736E02D9152BB27954E
:100830008EF178F73A9579F7220FF9CF502736E005
:1008400000C052BB279520F43A9521F4220FF9CF2E
:10085000502736E000C052BB279520F43A9521F48A
:10086000220FF9CF502736E000C052BB279520F465
:100870003A9521F4220FF9CF502736E04A9547FBED
:1008800052BB279520F43A9521F4220FF9CF502737
:1008900036E0A5CF00C022B3237F22BB4F91A41B1B
:1008A000B040422F286031B3337F00E40ABF5F912C
:1008B0000E91037422BB31BB42BB20CFAF93BF93D9
:1008C0000F931F932F933F934F938F93A881B981D9
:1008D0004C91AA81BB810FEF1FEF4A95DAF02D9161
:1008E0002027822F012F3327889427958227379539
:1008F000282F2795122F3795881F8227282F22957A
:100900008227232F31E081FD2327022720EC81FD60
:100910001227E3CF10950095AC81BD810D931C93F8
:100920008F914F913F912F911F910F91BF91AF9157
:100930000895481A590A0895481A8827580A0895A8
:1009400099275A924A92480E591E0895C895319691
:100950000020089582E001C084E099279D938A9544
:04096000E9F7089516
:00000001FF
