:100000000C947200189500001895000018950000D7
:10001000189500001895000018950000189500002C
:10002000189500001895000018950000189500001C
:10003000189500001895000018950000189500000C
:1000400018950000189500001895000018950000FC
:1000500018950000189500001895000018950000EC
:1000600018950000189500001895000018950000DC
:1000700018950000189500001895000018950000CC
:1000800018950000189500001895000018950000BC
:1000900018950000189500001895000018950000AC
:1000A000189500001895000018950000189500009C
:1000B000189500001895000018950000189500008C
:1000C000189500001895000018950000189500007C
:1000D000189500001895000018950000189500006C
:1000E000189500008FEF8DBFC8EDE0EC4E2E81E239
:1000F0008EBFD1E2F1E25F2EA89584B7082E877FEC
:1001000084BF88E199278093600090936000EEEFB0
:10011000FFE1A0E0B2E088278D933197E9F76624EC
:1001200080E197E2A1E0B2E08D939C9388EE93E0AA
:10013000A3E0B2E08D939C93279AA3E0B2E0ED9107
:10014000FC91A1E0B2E08D919C9101972F9A0E94C1
:10015000B4002F980E94B400482F492BB1F7F894AF
:10016000FFCF3197F1F70895AE2FBF2F11974A2F88
:100170004B2BE1F70895689462F80895E89462F8CB
:1001800008950F9301E00BBF0F91889408950F938A
:100190000027F9CF0F9302E0F6CF0F9303E0F3CFE0
:00000001FF
