:1000000019C006C318951895189518951895189540
:100010001895189518951895189518951895189578
:100020001895189518951895189518951895189568
:10003000189518958FEF8DBFC8EDE6E94E2E82E03A
:100040008EBFD2E0F2E05F2EA89584B7082E877F9E
:1000500084BF88E1992780936000909360006624B4
:100060005A985B98A5D2809169008360809369005B
:10007000E89A789481E085BD569A559A81EF84BDBF
:10008000219A229A81EF8093800081E08093810001
:1000900081E08093B100239A539A81EF8093B0005E
:1000A000539A559A569A219A229A239AA1E4B1E03A
:1000B00079D44B990EC0A1E4B1E09AD2A1E4B1E0A9
:1000C0000D911C91083E53E0150709F001C070D254
:1000D000F0CFAEE3B1E00C9107FB0EF06BC0AEE3E6
:1000E000B1E00C9104FB0EF007C0A8E1B1E0BA93B7
:1000F000AA93A7D0229654C0AEE3B1E00C9101FBC5
:100100000EF04EC0009102010F3F09F004C080E0E4
:100110008093440105C0A4E4B1E08C918F5F8C937F
:1001200000914401013009F004C0A2E0B1E08C91DB
:1001300087BD00914401023009F004C0A2E0B1E0A3
:100140008C9188BD00914401033009F008C0A2E001
:10015000B1E08C9199279093890080938800009159
:100160004401043009F008C0A2E0B1E08C91992765
:1001700090938B0080938A0000914401053009F030
:1001800005C0A2E0B1E08C918093B30000914401DE
:10019000063009F005C0A2E0B1E08C918093B40074
:1001A000AEE3B1E08C9180648C93AEE3B1E08C91CE
:1001B0008F778C937BCFF894FFCF12120110010040
:1001C000000008AAAA22EF0100010200010029098B
:1001D00002290001010280FA090400000203000064
:1001E0000009211101000122140007058103080004
:1001F0000A0705020308000A140600FF0901A1020C
:100200000901150025FF750895019102C00004043D
:10021000030904000A0A0372006100640061006EB1
:1002200000001C1C0352006100640061006E00208D
:10023000004C00450044002000760031002E0030C4
:10024000000080E08093400180E6A881B9818C9312
:1002500000910201003809F03EC000910301063010
:1002600009F038C000910501013009F007C0EAEB40
:10027000F1E0B8D181E0809340012CC0023009F058
:1002800007C0EEECF1E0AED181E08093400122C0E6
:10029000033009F01FC000910401003009F007C0CD
:1002A000EEE0F2E09FD181E08093400113C0013085
:1002B00009F007C0E4E1F2E095D181E080934001CC
:1002C00009C0023009F006C0E2E2F2E08BD181E021
:1002D000809340015EC0003009F02FC000910301FF
:1002E000053009F019C0A881B981BA93AA9380E0BA
:1002F000D2018C9381E04CD3F4D0249681E044D396
:10030000A881B9810C9105FB0EF401C0F9CF809151
:1003100004018093000110C0093009F00DC0A881CC
:10032000B981BA93AA9380E0D2018C9381E030D353
:10033000D8D0249681E028D32CC0013809F011C010
:1003400000910301063009F00BC000910501023253
:1003500009F006C0E8EFF1E045D181E0809340016B
:1003600018C0013209F015C0009103010A3009F0EC
:1003700010C081E080934301A881B981BA93AA9308
:1003800080E0D2018C9381E003D3ABD0249681E04E
:10039000FBD200914001013009F00AC0A881B98167
:1003A000BA93AA93A8E0B1E0BA93AA9302D0249694
:1003B000089581E0EDD281E0EBD281E0E9D282E0E4
:1003C000E7D213D1AE81BF81E9D20C920BD1AE81BD
:1003D000BF814C91A885B9850C91041708F006C01F
:1003E000A885B9858C91AE81BF818C9382E0AC8168
:1003F000BD818C9381E0AA81BB818C93AE81BF814A
:100400004C91AA81BB810C91041710F009F063C0D4
:10041000AC81BD818C918F5F8C93E7D0AC81BD8125
:10042000AD90BB24AA85BB85AA0DBB1D1197B6D282
:100430000C92D8D0AC81BD810C910A3081E009F0DA
:1004400080E08F93AE81BF814C91AA81BB810C91DA
:10045000041781E009F080E09F91892B882309F43B
:1004600033C0AC81BD818C9182508C93AA85BB85B1
:10047000BA93AA93AE81BF818C91D2018C9381E013
:1004800087D22FD0249681E07FD2AA85BB850C919C
:1004900005FB0EF415C0A881B98184D24B990FC019
:1004A000A881B981A5D0A881B9810D911C91083E80
:1004B00053E0150709F002C07BD00DC0EFCFE5CFA8
:1004C00082E0AC81BD818C93AA81BB818C918F5FCE
:1004D0008C9308F493CF85E0481A80E0580A289658
:1004E0000895AA81BB818C91807C8C93ACE3B1E0B0
:1004F000BA93AA93AC80BD80A2E0B0E0AA0DBB1D68
:10050000BA93AA93AC81BD81BA93AA93FFD12696E0
:10051000A881B9818C918D5F8C93AA81BB810C914C
:10052000A881B9814C91040FAA81BB810C93ACE3E3
:10053000B1E08C91A881B981AD90BB24AA81BB8127
:10054000AA0DBB1D11978C93A881B9818C918F5FE7
:100550008C93ACE3B1E011968C91A881B981AD90F8
:10056000BB24AA81BB81AA0DBB1D11978C938BE480
:10057000AA80BB80A1E0B0E0AA0DBB1D8C93AA812C
:10058000BB810C9106FB0EF408C083ECAA80BB80F3
:10059000A1E0B0E0AA0DBB1D8C93AA81BB818C9118
:1005A00080618C93AA81BB818C918F7D8C930895FF
:1005B000AEE3B1E08C9180648C93AEE3B1E08C91BA
:1005C0008F778C9380E28093180180E280932401DE
:1005D00080E28093300180E08093000180E080938E
:1005E000430108958E2E9F2E0895E82DF92D08952C
:1005F000ED91FC91EF5FFF4FFC93EE9308953197DF
:10060000F1F70895689462F80895E89462F80895FF
:10061000AF93BF934F933F933FB73F9333954B9B1C
:10062000E9F74A9909C04B9B07C04A9905C04B9B03
:1006300003C04A9901C08DC0A1E0B1E030913E01F4
:10064000442736FF4BE04B99ECCF2F931F93A40F19
:1006500040E019B1B41F36FFA40F40E0B41F0F9360
:1006600009B12FE73FEF13FB20F9102712FB21F907
:1006700019B1000013C019B132273D933FEF012794
:1006800002FB20F909B10C7099F1297F91F1102733
:1006900012FB21F919B10000237F89F10000012725
:1006A00002FB22F909B1277E81F1102712FB23F901
:1006B0002F7C89F119B1012702FB24F900C02F79A1
:1006C00079F109B12F774395102712FB25F92F7384
:1006D00061F119B1012702FB26F9223058F14C30A3
:1006E000A8F509B1102712FB27F9243048F1C3CF30
:1006F0003AC00000216009B13E7F1095C8CF22604A
:100700003D7F009519B10000C9CF24603B7F109553
:10071000000009B1CACF2860377F009500C0CACF5A
:1007200020613F7E109500C0CCCF20623F7D0095B8
:1007300000C0CFCF00C020643F7B109500C0D1CF58
:1007400020683F77009500C000C095CF0F911F91A2
:100750002F913CB330FD62CF3F913FBF3F914F910E
:10076000BF91AF91189531E03CBBA41BB0400D91F7
:10077000102F13731132C1F41D912D91409100017E
:10078000110F221F16952F70141771F5093649F0B5
:10079000013E61F130913E0136FF26C00D3229F154
:1007A00023C020933F0149F020913F0125FDCECF8A
:1007B00030913E01307C322B2F70A8E1B1E0203027
:1007C00049F0A4E2B1E0213029F0A0E3B1E0223009
:1007D00009F00AC01D91093691F0033CA9F00B34D1
:1007E00099F0023D31F0B2CF2062206120933F01A9
:1007F000ADCF1F7E106230E413271E93A7CF14FFE6
:1008000005C0412F4F7024C036FD02C01AE50BC051
:10081000433041F036FFFACF30683F7B30933E01E2
:100820004093170112EDBB27A1E141E011C05BB974
:10083000279520F43A9521F4220FF9CF502736E07E
:1008400000C05BB92795B8F43A95B9F4220FF9CFF7
:100850005F934F930CE05B9A2AB12C602AB95BB18D
:1008600020E4502736E000005BB9279578F43A95EC
:1008700079F4220FF9CF502736E02D915BB92795F7
:100880008EF178F73A9579F7220FF9CF502736E0B5
:1008900000C05BB9279520F43A9521F4220FF9CFD7
:1008A000502736E000C05BB9279520F43A9521F433
:1008B000220FF9CF502736E000C05BB9279520F40E
:1008C0003A9521F4220FF9CF502736E04A9547FB9D
:1008D0005BB9279520F43A9521F4220FF9CF5027E0
:1008E00036E0A5CF00C02BB1237F2BB94F91A41BBD
:1008F000B040422F28603AB1337F01E00CBB5F91DA
:100900000E9103742BB93AB94BB920CFAF93BF9373
:100910000F931F932F933F934F938F93A881B98188
:100920004C91AA81BB810FEF1FEF4A95DAF02D9110
:100930002027822F012F33278894279582273795E8
:10094000282F2795122F3795881F8227282F229529
:100950008227232F31E081FD2327022720EC81FD10
:100960001227E3CF10950095AC81BD810D931C93A8
:100970008F914F913F912F911F910F91BF91AF9107
:100980000895481A590A0895481A8827580A089558
:1009900099275A924A92480E591E0895C895319641
:1009A0000020089582E001C084E099279D938A95F4
:0409B000E9F70895C6
:00000001FF
