:100000000C947200189500001895000018950000D7
:10001000189500001895000018950000189500002C
:10002000189500001895000018950000189500001C
:10003000189500001895000018950000189500000C
:1000400018950000189500001895000018950000FC
:1000500018950000189500001895000018950000EC
:1000600018950000189500001895000018950000DC
:1000700018950000189500001895000018950000CC
:1000800018950000189500001895000018950000BC
:1000900018950000189500001895000018950000AC
:1000A000189500001895000018950000189500009C
:1000B000189500001895000018950000189500008C
:1000C000189500001895000018950000189500007C
:1000D000189500001895000018950000189500006C
:1000E000189500008FEF8DBFC8EDE0EC4E2E81E239
:1000F0008EBFD1E2F1E25F2EA89584B7082E877FEC
:1001000084BF88E199278093600090936000EEEFB0
:10011000FFE1A0E0B2E088278D933197E9F78FE502
:100120008093C40080E08093C50088E18093C10083
:1001300066245A924A9283E0D2018C9381E00E9415
:10014000F5015A924A9280E0D2018C9381E00E949C
:10015000F5010E94AB01249682E00E94C0018FEF5E
:1001600080930302EAE7F5E00E9413020E94CC01AB
:100170000E94D3010E94D30181E08093040281E0B8
:100180008093040200910402043018F011F00C94E2
:10019000F800E0E8F5E00E9413020E94CC01A8EA12
:1001A000B1E2E4E0F2E00E9439020E94C401EEE80C
:1001B000F5E00E9413020E94CC010E94D3015A92E2
:1001C0004A9280910402D2018C9381E00E94F50151
:1001D0000E944601229681E00E94C0010E943501E2
:1001E000A4E0B2E08C918F5F8C9310F40C94C20069
:1001F00081E08093040200910402043018F011F0B1
:100200000C943101E0E8F5E00E9413020E94CC0159
:10021000A8EAB1E2E4E0F2E00E9439020E94C401DF
:10022000E4E9F5E00E9413020E94CC010E94D30190
:100230005A924A9280910402D2018C9381E00E94EA
:10024000F5010E947C01229681E00E94C0010E947B
:100250003501A4E0B2E08C918F5F8C9310F40C9484
:10026000FB000C94BA00F894FFCF8AEF90E00E9454
:10027000E6018AEF90E00E94E6018AEF90E00E949A
:10028000E6018AEF90E00E94E601089581E0809304
:100290000102A881B9818C9181508C93A881B98188
:1002A0009C91A1E0B2E00E94F901A1E0B2E08C9142
:1002B0008C939FEF89278C93009103024091010258
:1002C0000423A3E0B2E00C935A924A9281E0D20157
:1002D0008C9381E00E94F5015A924A928091030228
:1002E000D2018C9381E00E94F5010E94AB0124961B
:1002F00082E00E94C001089581E080930102A881FC
:10030000B9818C9181508C93A881B9819C91A1E095
:10031000B2E00E94F9010091030240910102042B16
:10032000A3E0B2E00C935A924A9281E0D2018C93FE
:1003300081E00E94F5015A924A9280910302D20113
:100340008C9381E00E94F5010E94AB01249682E02B
:100350000E94C00108950E94880210E40E94A00239
:10036000AA81BB811C910E94A002A881B9811C9125
:100370000E94A0020E9497020895481A590A0895FF
:10038000481A8827580A0895A8EAB1E28D9188236F
:1003900011F00CD0FBCF08950E940302802D11F0C4
:1003A00005D0FACF08958DE001D08AE00090C0001A
:1003B00005FEFCCF8093C60008953197F1F70895AC
:1003C000689462F80895E89462F80895EF93FF93B3
:1003D000EE27E82BE92B31F0E6E6FEE03197F1F766
:1003E0000197D1F7FF91EF910895480E8827581E85
:1003F0000895903039F08C91880F08F481609A95B7
:10040000D9F78C930895D895319628F48F938BB7AC
:1004100083958BBF8F91002008950F9301E00BBF50
:100420000F91889408950F930027F9CF0F9302E05E
:10043000F6CF0F9303E0F3CF000F111F221F331FDE
:10044000089500951095209530950F5F1F4F2F4F01
:100450003F4F0895019110810EC00191119121919A
:1004600030810BC00191108117FF05C03FEF2FEFC6
:1004700004C0008111272227332737FF03C0E1DFA3
:100480008DE28D93CF93DF93CF92DF92EF92AA24E8
:10049000BB24CC24DD24EE2440E2CAE0DD2755E075
:1004A00093E38881890F87FD9F7083FD907F891B6F
:1004B00089935A95A9F7C0DFAA1CBB1CCC1CDD1C74
:1004C000EE1C4A9551F7E894EFE0FF2782910ED099
:1004D000EB30E0F71EF068948A2D0CD088278D93BE
:1004E000EF90DF90CF90DF91CF910895982F829574
:1004F00001D0892F8F70805D26F0803309F4089534
:1005000068948D93089559985898519850980895E3
:10051000509A519803D0509801D0519AEF93FF937D
:10052000EFE0F0E00E94DD01FF91EF910895509A15
:10053000519AF4DF5098489BFECFF0DF5198EECFF0
:100540000894111F01C0110F69F0509A18F40000AF
:10055000519802C0519A00C0E1DF5098489BFECFED
:10056000DDDFF1CF509A5198D9DF5098489BFECFEC
:10057000E8944999689462F8D1CF53746172740019
:100580005475726E2072656C617920232000204FB3
:0805900046460000204F4E001A
:00000001FF
