:1000000012C094C6189518951895189518951895B6
:100010002AC6189518951895189518951895189535
:100020001895189518958FE58DBFC8E3E6EF4E2E0D
:1000300084E08EBFD4E0F3E05F2EA89584B7082E4D
:10004000877F84BF88E1992781BD91BD662470EECA
:1000500077BB7FE178BB7FEF74BB70E075BB7BEA59
:1000600071BB70E472BB92989498DED585B78360BB
:1000700085BF7BB770647BBF80E08FBD84E08EBDA1
:1000800079B7746079BF80E08093860080E08093C8
:10009000870080E08093880080E08093890080E082
:1000A00080938A0080E080938B0080E080938C00B6
:1000B00080E080938D0071E075BBC59A979A84E6C5
:1000C00090E025D697988CE291E021D6979A84E625
:1000D00090E01DD697988CE291E019D6979A84E625
:1000E00090E015D69798789480E090E0A1EAB0E08F
:1000F0008D939C9384990EC0A1EAB0E0F8D5A1EA53
:10010000B0E00D911C91083E53E0150709F001C0C5
:100110008BD5F0CFAEE9B0E00C9107FB0EF016C026
:10012000AEE9B0E00C9104FB0EF006C0A8E7B0E029
:10013000BA93AA9367D32296AEE9B0E08C9180641B
:100140008C93AEE9B0E08C918F778C930091A400F2
:10015000013009F0B3C2AD98EF93FF93E2E9F0E00C
:10016000CDD5FF91EF91A6E3B0E08C9184FBA5EA99
:10017000B0E0882780F98C93A6E3B0E08C9183FBF4
:10018000ACEAB0E0882780F98C93A6E3B0E08C91CC
:1001900082FBA3EBB0E0882780F98C93A6E3B0E064
:1001A0008C9181FBAAEBB0E0882780F98C93A6E3C1
:1001B000B0E08C9180FBA1ECB0E0882780F98C93B3
:1001C000AD9AAC98EF93FF93E2E9F0E097D5FF91F9
:1001D000EF91A6E3B0E08C9184FBA6EAB0E088271B
:1001E00080F98C93A6E3B0E08C9183FBADEAB0E09C
:1001F000882780F98C93A6E3B0E08C9182FBA4EB76
:10020000B0E0882780F98C93A6E3B0E08C9181FB65
:10021000ABEBB0E0882780F98C93A6E3B0E08C913B
:1002200080FBA2ECB0E0882780F98C93AC9AAB9865
:10023000EF93FF93E2E9F0E061D5FF91EF91A6E340
:10024000B0E08C9184FBA7EAB0E0882780F98C931A
:10025000A6E3B0E08C9183FBAEEAB0E0882780F99A
:100260008C93A6E3B0E08C9182FBA5EBB0E08827ED
:1002700080F98C93A6E3B0E08C9181FBACEBB0E00D
:10028000882780F98C93A6E3B0E08C9180FBA3ECE7
:10029000B0E0882780F98C93AB9AAA98EF93FF93EC
:1002A000E2E9F0E02BD5FF91EF91A6E3B0E08C916D
:1002B00084FBA8EAB0E0882780F98C93A6E3B0E03D
:1002C0008C9183FBAFEAB0E0882780F98C93A6E39A
:1002D000B0E08C9182FBA6EBB0E0882780F98C938C
:1002E000A6E3B0E08C9181FBADEBB0E0882780F90C
:1002F0008C93A6E3B0E08C9180FBA4ECB0E088275F
:1003000080F98C93AA9AA998EF93FF93E2E9F0E021
:10031000F5D4FF91EF91A6E3B0E08C9184FBA9EABC
:10032000B0E0882780F98C93A6E3B0E08C9183FB42
:10033000A0EBB0E0882780F98C93A6E3B0E08C9125
:1003400082FBA7EBB0E0882780F98C93A6E3B0E0AE
:100350008C9181FBAEEBB0E0882780F98C93A6E30B
:10036000B0E08C9180FBA5ECB0E0882780F98C93FD
:10037000A99AA898EF93FF93E2E9F0E0BFD4FF9128
:10038000EF91A6E3B0E08C9184FBAAEAB0E0882765
:1003900080F98C93A6E3B0E08C9183FBA1EBB0E0F5
:1003A000882780F98C93A6E3B0E08C9182FBA8EBC0
:1003B000B0E0882780F98C93A6E3B0E08C9181FBB4
:1003C000AFEBB0E0882780F98C93A6E3B0E08C9186
:1003D00080FBA6ECB0E0882780F98C93A89AC5989A
:1003E000EF93FF93E2E9F0E089D4FF91EF91A6E368
:1003F000B0E08C9184FBABEAB0E0882780F98C9365
:10040000A6E3B0E08C9183FBA2EBB0E0882780F9F3
:100410008C93A6E3B0E08C9182FBA9EBB0E0882737
:1004200080F98C93A6E3B0E08C9181FBA0ECB0E066
:10043000882780F98C93A6E3B0E08C9180FBA7EC31
:10044000B0E0882780F98C93C59A81E08093C8003A
:100450000091C800023210F009F014C0A8ECB0E01E
:10046000AD90BB24A4EAB0E0AA0DBB1D0C910030F6
:1004700009F001C008C0A8ECB0E08C918F5F8C93AC
:1004800008F4E6CFB6C0A8ECB0E00C9143E0049FBE
:100490000C92969905C0A8ECB0E08C9187598C938A
:1004A000A8ECB0E0EC91FF27ABECB0E091E011D606
:1004B0008091C80081508093C800A8ECB0E0EC9116
:1004C000FF27AAECB0E091E004D68091C8008150EB
:1004D0008093C800A8ECB0E0EC91FF27A9ECB0E055
:1004E00091E0F7D50091CA00003009F041C0A8E7BB
:1004F000B0E00C9105FB0EF01CC0979A8091C900EA
:100500008093860080E0809387008091CB00809369
:100510008800A4E8B0E0BA93AA9388E0D2018C9353
:1005200081E0C4D51AD3249681E0BCD586E490E05E
:10053000EED3A8E7B0E00C9105FB0EF017C080E009
:100540008093860080E08093870080E0809388001D
:10055000A4E8B0E0BA93AA9388E0D2018C9381E03A
:10056000A5D5FBD2249681E09DD5979842C041C085
:10057000A8E7B0E00C9105FB0EF01DC0979A8091A2
:10058000C900809392008091CA008093930080916B
:10059000CB0080939400A0E9B0E0BA93AA9383E0E3
:1005A000D2018C9381E082D5D8D2249681E07AD58D
:1005B00086E490E0ACD3A8E7B0E00C9105FB0EF028
:1005C00018C08091C9008093920080E080939300CE
:1005D00080E080939400A0E9B0E0BA93AA9383E00E
:1005E000D2018C9381E062D5B8D2249681E05AD5AD
:1005F00097980091C700003009F060C0979AECE529
:10060000FCE06FD381E08093C8000091C8000930FE
:1006100010F009F036C068D3ABECB0E04DD50C92C9
:1006200060D3A8E7B0E00C9105FB0EF023C0009169
:10063000CB000D3209F004C080E08093860003C037
:1006400082E08093860080E0809387008091CB00D9
:1006500080938800A4E8B0E0BA93AA9388E0D2011E
:100660008C9381E023D579D2249681E01BD586E452
:1006700090E04DD3A8ECB0E08C918F5F8C9308F4A0
:10068000C4CFA8E7B0E00C9105FB0EF016C080E0E7
:100690008093860080E08093870080E080938800CC
:1006A000A4E8B0E0BA93AA9388E0D2018C9381E0E9
:1006B000FDD453D2249681E0F5D4979815CDF894C3
:1006C000FFCF121201100100000008BBBB33EF0185
:1006D0000001020001003B09023B00020100A032C0
:1006E0000904000001030101000921110100012298
:1006F0003F000705810308000A0904010001030007
:1007000000000921110100012232000705820303C4
:10071000000A3F05010906A101050719E029E715AF
:1007200000250175019508810295017508810395E1
:1007300005750105081901290591029501750391B7
:1007400003950675081500256505071900296581BB
:1007500000C032050C0901A101850119002A3C02E3
:100760001500263C02950175108100C00501098025
:10077000A101850219812983250175019503810253
:1007800095058101C00004040309040022220352DC
:10079000006100640061006E002000260020004D12
:1007A0000072005300680069006C006F0076000062
:1007B0000000464603100442043E043C043D04305D
:1007C000044F0420003A043B04300432043804305F
:1007D0000442044304400430042000320438043D41
:1007E00004340443043A0441043E0438043404301D
:1007F00004200076002E00320000000004040332C2
:100800000000000080E08093A00080E6A881B9810C
:100810008C9300916200003809F048C00091630099
:10082000063009F042C000916500013009F007C0B0
:10083000E2ECF6E056D281E08093A00036C00230B0
:1008400009F007C0E6EDF6E04CD281E08093A0000D
:100850002CC0033009F029C000916400003009F079
:1008600007C0E6E8F7E03DD281E08093A0001DC01C
:10087000013009F007C0ECE8F7E033D281E0809363
:10088000A00013C0023009F007C0E2EBF7E029D264
:1008900081E08093A00009C0033009F006C0ECEFAE
:1008A000F7E01FD281E08093A000ACC0003009F0D7
:1008B0002FC000916300053009F019C0A881B981EB
:1008C000BA93AA9380E0D2018C9381E0EFD345D113
:1008D000249681E0E7D3A881B9810C9105FB0EF441
:1008E00001C0F9CF809164008093600010C009308E
:1008F00009F00DC0A881B981BA93AA9380E0D20112
:100900008C9381E0D3D329D1249681E0CBD37AC0D4
:10091000013809F01EC000916300063009F018C0CC
:1009200000916500023209F013C0009166000030AA
:1009300009F003C0E2E1F7E0D4D100916600013094
:1009400009F003C0E2E5F7E0CCD181E08093A0009C
:1009500059C0013209F056C000916300093009F016
:100960003EC0AEE9B0E08C918F778C93AEE9B0E0F9
:100970008C9180648C93AFE9B0E08C918F7D8C93E7
:10098000A881B981BA93AA9380E0D2018C9381E0C7
:100990008DD3E3D0249681E085D3AEE9B0E00C910D
:1009A00007FB0EF0FACFA2E6B0E08C9180FBA2E349
:1009B000B0E08C9180F98C93A2E6B0E08C9181FB41
:1009C000A2E3B0E08C9181F98C93A2E6B0E08C9127
:1009D00082FBA2E3B0E08C9183F98C9313C00A30C0
:1009E00009F010C081E08093A300A881B981BA9377
:1009F000AA9380E0D2018C9381E058D3AED02496A4
:100A000081E050D30091A000013009F00AC0A88114
:100A1000B981BA93AA93A8E6B0E0BA93AA9302D098
:100A20002496089581E042D381E040D381E03ED313
:100A300082E03CD359D1AE81BF813ED30C9251D1DB
:100A4000AE81BF814C91A885B9850C91041708F03F
:100A500006C0A885B9858C91AE81BF818C9382E058
:100A6000AC81BD818C9381E0AA81BB818C93AE81E6
:100A7000BF814C91AA81BB810C91041710F009F041
:100A800066C0AC81BD818C918F5F8C932DD1AC8180
:100A9000BD81AD90BB24AA85BB85AA0DBB1D119756
:100AA0000BD30C921ED1AC81BD810C910A3081E038
:100AB00009F080E08F93AE81BF814C91AA81BB8108
:100AC0000C91041781E009F080E09F91892B882325
:100AD00009F436C0AC81BD818C9182508C93AA857B
:100AE000BB85BA93AA93AE81BF818C91D2018C93BE
:100AF00081E0DCD232D0249681E0D4D2AA85BB85B5
:100B00000C9105FB0EF418C080E090E0A881B9813B
:100B10008D939C9384990FC0A881B981E8D0A88156
:100B2000B9810D911C91083E53E0150709F002C0F0
:100B30007BD00DC0EFCFE2CF82E0AC81BD818C9342
:100B4000AA81BB818C918F5F8C9308F490CF85E054
:100B5000481A80E0580A28960895AA81BB818C9192
:100B6000807C8C93ACE9B0E0BA93AA93AC80BD8052
:100B7000A2E0B0E0AA0DBB1DBA93AA93AC81BD81DF
:100B8000BA93AA9351D22696A881B9818C918D5F90
:100B90008C93AA81BB810C91A881B9814C91040FDF
:100BA000AA81BB810C93ACE9B0E08C91A881B9819A
:100BB000AD90BB24AA81BB81AA0DBB1D11978C935C
:100BC000A881B9818C918F5F8C93ACE9B0E01196CC
:100BD0008C91A881B981AD90BB24AA81BB81AA0D5B
:100BE000BB1D11978C938BE4AA80BB80A1E0B0E081
:100BF000AA0DBB1D8C93AA81BB810C9106FB0EF440
:100C000008C083ECAA80BB80A1E0B0E0AA0DBB1DA8
:100C10008C93AA81BB818C9180618C93AA81BB81CA
:100C20008C918F7D8C930895AEE9B0E08C918064B7
:100C30008C93AEE9B0E08C918F778C9380E28093B7
:100C4000780080E28093840080E28093900080E0CE
:100C50008093600080E08093A30008950504160649
:100C6000122D041915000F921F922F923F924F924E
:100C70005F927F92AF92BF920F931F932F933F93F8
:100C80004F935F936F937F938F939F93AF93BF9394
:100C9000CF93DF93EF93FF938FB78F9380E69AEE16
:100CA0009DBD8CBD81E08093A4008F918FBFFF918B
:100CB000EF91DF91CF91BF91AF919F918F917F91F4
:100CC0006F915F914F913F912F911F910F91BF9025
:100CD000AF907F905F904F903F902F901F900F901C
:100CE00018958E2E9F2E0895E82DF92D0895ED91DB
:100CF000FC91EF5FFF4FFC93EE9308953197F1F76E
:100D00000895689462F80895E89462F80895EF935E
:100D1000FF93EE27E82BE92B31F0E8EBFBE031976E
:100D2000F1F70197D1F7FF91EF910895AF93BF933A
:100D30004F933F933FB73F933395849BE9F7829955
:100D400009C0849B07C0829905C0849B03C0829917
:100D500001C08DC0A1E6B0E030919E00442736FF6F
:100D60004BE08499ECCF2F931F93A40F40E010B376
:100D7000B41F36FFA40F40E0B41F0F9300B32FE75A
:100D80003FEF14FB20F9102712FB21F910B30000EC
:100D900013C010B332273D933FEF012702FB20F928
:100DA00000B3047199F1297F91F1102712FB21F909
:100DB00010B30000237F89F10000012702FB22F914
:100DC00000B3277E81F1102712FB23F92F7C89F1D4
:100DD00010B3012702FB24F900C02F7979F100B389
:100DE0002F774395102712FB25F92F7361F110B36C
:100DF000012702FB26F9223058F14C30A8F500B348
:100E0000102712FB27F9243048F1C3CF3AC0000065
:100E1000216000B33E7F1095C8CF22603D7F0095D2
:100E200010B30000C9CF24603B7F1095000000B3D1
:100E3000CACF2860377F009500C0CACF20613F7EAF
:100E4000109500C0CCCF20623F7D009500C0CFCF71
:100E500000C020643F7B109500C0D1CF20683F7751
:100E6000009500C000C095CF0F911F912F913AB708
:100E700036FD62CF3F913FBF3F914F91BF91AF9100
:100E8000189530E43ABFA41BB0400D91102F137396
:100E90001132C1F41D912D9140916000110F221F5C
:100EA00016952F70141771F5093649F0013E61F15E
:100EB00030919E0036FF26C00D3229F123C02093C9
:100EC0009F0049F020919F0025FDCECF30919E00DC
:100ED000307C322B2F70A8E7B0E0203049F0A4E836
:100EE000B0E0213029F0A0E9B0E0223009F00AC0DA
:100EF0001D91093691F0033CA9F00B3499F0023DA5
:100F000031F0B2CF2062206120939F00ADCF1F7ED1
:100F1000106230E413271E93A7CF14FF05C0412FA2
:100F20004F7024C036FD02C01AE50BC0433041F0BB
:100F300036FFFACF30683F7B30939E0040937700B6
:100F400012EDBB27A1E141E011C052BB279520F46F
:100F50003A9521F4220FF9CF502736E000C052BB5A
:100F60002795B8F43A95B9F4220FF9CF5F934F93D0
:100F700004E1949A21B3246121BB52B320E45027A9
:100F800036E0000052BB279578F43A9579F4220FA9
:100F9000F9CF502736E02D9152BB27958EF178F787
:100FA0003A9579F7220FF9CF502736E000C052BBAF
:100FB000279520F43A9521F4220FF9CF502736E0F7
:100FC00000C052BB279520F43A9521F4220FF9CFA7
:100FD000502736E000C052BB279520F43A9521F403
:100FE000220FF9CF502736E04A9547FB52BB279591
:100FF00020F43A9521F4220FF9CF502736E0A5CFFF
:1010000000C022B32B7E22BB4F91A41BB040422FC5
:10101000206131B33B7E00E40ABF5F910E910374FF
:1010200022BB31BB42BB20CFAF93BF930F931F9323
:101030002F933F934F938F93A881B9814C91AA81AD
:10104000BB810FEF1FEF4A95DAF02D912027822FF9
:10105000012F33278894279582273795282F2795A6
:10106000122F3795881F8227282F22958227232F1A
:1010700031E081FD2327022720EC81FD1227E3CFF9
:1010800010950095AC81BD810D931C938F914F916C
:101090003F912F911F910F91BF91AF910895481AE1
:1010A000590A0895481A8827580A089599275A9284
:1010B0004A92480E591E0895C89531960020089509
:1010C000E199FECFEEBBFFBB3196089591E001C0E0
:1010D00092E0F6DFE09A8DB38D939A95D1F708955B
:00000001FF
